:020000040800F2
:10000000007600202903000875700008DF680008EA
:1000100071700008DF060008E5B500080000000068
:10002000000000000000000000000000690200085D
:10003000F916000800000000C502000895A300089A
:100040004303000843030008430300084303000878
:100050004303000843030008430300084303000868
:10006000430300084303000843030008BD140008CD
:1000700043030008CD14000843030008DD14000802
:10008000ED140008FD1400084303000843030008B2
:100090002D0700084303000843030008430300083A
:1000A0004303000843030008430300084303000818
:1000B000B9A60008430300084303000843030008EF
:1000C00043030008430300084303000843030008F8
:1000D0005D9B00089DB300081DB4000843030008A1
:1000E00043030008430300084303000843030008D8
:1000F0004303000843030008430300080D150008EC
:1001000043030008430300084303000843030008B7
:1001100029AA0008E1AA0008A9A8000843030008CA
:10012000430300081D1500082D15000843030008AF
:100130004303000843030008430300084303000887
:100140008507000843030008430300084303000831
:10015000430300083D1500084D150008D5B40008FC
:100160004303000843030008430300084303000857
:100170004303000843030008430300080000000095
:10018000430300084303000800F002F800F05CF8A5
:100190000AA090E8000C82448344AAF10107DA45E2
:1001A00001D100F051F8AFF2090EBAE80F0013F0D8
:1001B000010F18BFFB1A43F001031847EC1B0100A5
:1001C0000C1C01000A444FF0000C10F8013B13F026
:1001D000070408BF10F8014B1D1108BF10F8015BA0
:1001E000641E05D010F8016B641E01F8016BF9D193
:1001F00013F0080F1EBF10F8014BAD1C0C1B09D1EA
:100200006D1E58BF01F801CBFAD505E014F8016B5B
:1002100001F8016B6D1EF9D59142D6D370470000ED
:100220000023002400250026103A28BF78C1FBD8FF
:10023000520728BF30C148BF0B6070471FB511F08F
:10024000D4F91FBD10B510BD00F0E4F91146FFF759
:10025000F5FF0DF037FF00F002FA03B4FFF7F2FFED
:1002600003BC00F005FA00002C4B19680868B0E8E0
:10027000F04F80F30988BFF36F8F4FF0000080F3D9
:10028000118870470000000008480068006880F38B
:1002900008884FF0000080F3148862B661B6BFF39F
:1002A0004F8FBFF36F8F00DF00BF00BF08ED00E08E
:1002B000DFF80C00016841F470010160704700BF75
:1002C00088ED00E0EFF30980BFF36F8F134B1A68DE
:1002D0001EF0100F08BF20ED108A20E9F04F1060CB
:1002E00009B44FF0500080F31188BFF34F8FBFF374
:1002F0006F8F0FF01BFC4FF0000080F3118809BCDA
:1003000019680868B0E8F04F1EF0100F08BFB0EC95
:10031000108A80F30988BFF36F8F70472C0000208C
:10032000EFF30580704700000948804709480047FF
:10033000FEE7FEE7FEE7FEE7FEE7FEE7FEE7FEE795
:10034000FEE7FEE704480549054A064B70470000F2
:1003500061A40008890100080070002000760020D8
:10036000007200200072002053EA020C00F0698045
:100370002DE9F04B4FF00006002B1FBFB3FA83F5B9
:1003800003FA05F424FA05F65E4012BF1643B2FAEA
:1003900082F502FA05F4C5F120051EBF22FA05FC1C
:1003A00044EA0C04203556EA044C4FEA144418BFC2
:1003B000641C4FF000084FF00009904271EB030CF1
:1003C00039D3002919BFB1FA81F701FA07F6B0FA5B
:1003D00080F700FA07F6C7F120071EBF20FA07FCD6
:1003E00046EA0C062037B6FBF4FCA7EB0507103FE6
:1003F00007F01F0BCBF120060CFA0BFB2CFA06F6CC
:1004000044BFB3460026202FA4BF5E464FF0000B2A
:100410005BEA060C08BF4FF0010B19EB0B09ABFBB5
:10042000027C48EB0608C01B06FB02CC0BFB03CC8E
:1004300071EB0C01C1E70B46024641464846BDE858
:10044000F08B13B54FF000004FF00001AFF30080C8
:10045000BDE81C407047032A40F2308010F0030CC6
:1004600000F0158011F8013BBCF1020F624498BF07
:1004700011F801CB00F8013B38BF11F8013BA2F1A4
:10048000040298BF00F801CB38BF00F8013B11F01F
:10049000030300F02580083AC0F0088051F8043BBF
:1004A000083A51F804CBA0E80810F5E7121D5CBF2C
:1004B00051F8043B40F8043BAFF30080D20724BF5F
:1004C00011F8013B11F801CB48BF11F8012B24BFF3
:1004D00000F8013B00F801CB48BF00F8012B704742
:1004E00010B5203AC0F00B80B1E81850203AA0E8CF
:1004F0001850B1E81850A0E81850BFF4F5AF5FEA03
:10050000027C24BFB1E81850A0E8185044BF18C9B5
:1005100018C0BDE810405FEA827C24BF51F8043B5C
:1005200040F8043B08BF7047D20728BF31F8023BB0
:1005300048BF11F8012B28BF20F8023B48BF00F844
:10054000012B704702F0FF0343EA032242EA024212
:1005500000F037B84FF0000200B5134694469646B7
:10056000203922BFA0E80C50A0E80C50B1F12001C6
:10057000BFF4F7AF090728BFA0E80C5048BF0CC074
:100580005DF804EB890028BF40F8042B08BF7047D2
:1005900048BF20F8022B11F0804F18BF00F8012B44
:1005A000704770477047704710B500F02BF800682F
:1005B00010BD10B5044600F025F8046010BD4FF0E2
:1005C00000020429C0F0128010F0030C3FF4C4AF05
:1005D000CCF1040CBCF1020F18BF00F8012BA8BF2E
:1005E00020F8022BA1EB0C01FFF7B6BF5FEAC17C3C
:1005F00024BF00F8012B00F8012B48BF00F8012BA5
:100600007047000000487047A06F00200048704706
:10061000A06F00207546FFF7F9FFAE46050069465A
:10062000534620F00700854618B020B5FFF78AFE34
:10063000BDE820404FF000064FF000074FF00008E3
:100640004FF0000B21F00701AC46ACE8C009ACE864
:10065000C009ACE8C009ACE8C0098D46704710B5C8
:100660000446AFF300802046BDE81040FFF7F5BD1B
:1006700001491820ABBEFEE726000200704710B506
:10068000027F3AB94160016000228260C2600122AB
:10069000027710BD026842600160D0E90023D21ADF
:1006A0008260426902EBD2748368B3EB640F04DDAD
:1006B00043698268D21A82600BE043695A4202EBB6
:1006C000D2748368B3EB640F03DA436982681A4417
:1006D0008260D0E902321A44C26000BFD9E700BF8D
:1006E000FEE7000010B58AB0044600200590069091
:1006F0000120079047F6FE700090002001900290C4
:10070000039004900E200990012008906946064845
:1007100002F0D8FF044803F05CFE0221024802F018
:1007200017FF0AB010BD00002C10002010B50248C1
:1007300003F023F910BD00002C10002010B58AB082
:1007400004460E200590002006900120079047F6F1
:10075000FE700090002001900290039004901C20F5
:100760000990012008906946054802F0ABFF044853
:1007700003F02FFE0221024802F0EAFE0AB010BD8B
:100780005410002010B5024803F0F7F810BD000027
:10079000541000202DE9FC4781460E4614461D46A4
:1007A000DDE90A78200A8DF80000E0B28DF801003A
:1007B000280A8DF80200E8B28DF80300380A8DF897
:1007C0000400F8B28DF805004FEA18208DF80600F5
:1007D00008F0FF008DF80700B1B208236A464846CA
:1007E00000F0C6F8BDE8FC872DE9F04782460C46CC
:1007F0002178607806F075F8564908600020486056
:100800008860C8606078012804D0022819D00428C4
:100810007DD12DE000204F49086101230022504680
:1008200002F0ABFE60B1022300224A49504602F0BA
:10083000A4FE28B1042300224649504602F09DFE42
:1008400084E000204349086101230022504602F061
:1008500094FE60B1022300223E49504602F08DFE14
:1008600028B1042300223B49504602F086FE6DE089
:10087000082038490861D4ED0B0AB0EE600A102058
:100880009FED351ADFED350A0DF0B0FB85B2D4EDE2
:100890000C0AB0EE600A0E209FED2F1ADFED2F0A32
:1008A0000DF0A4FB86B2D4ED0D0AB0EE600A102064
:1008B0009FED291ADFED290A0DF098FB87B2D4EDE0
:1008C0000E0AB0EE600A0A209FED251ADFED250A18
:1008D0000DF08CFB1FFA80F8D4ED0F0AB0EE600A21
:1008E00008209FED211ADFED1F0A0DF07FFB1FFA94
:1008F00080F91E490D70281248708E7008F00300B0
:10090000C6F3052141EA80101849C87000E01CE0D8
:10091000C8F38700087181F805908F713812C8718B
:1009200001230A460B49504602F027FE60B102231C
:100930000E4A0849504602F020FE28B104230B4A13
:100940000449504602F019FE00E000BF00BFBDE8B8
:10095000F0870000785F002000002042000020C2E5
:1009600000C07F440000000000004C42780A0020D4
:100970002DE9F04106460C4617461D460E48046018
:1009800000200D498860C8600846056101233A4689
:10099000304602F0F2FD60B102233A460649304685
:1009A00002F0EBFD28B104233A460349304602F039
:1009B000E4FDBDE8F0810000605F002030B52DED62
:1009C000108B83B004469FED770AB0EE40FA94EDA9
:1009D000000AD4ED070A30EE600A84ED030A94EDB4
:1009E000040AD4ED050A20EE200AB0EE408A94ED08
:1009F000050A20EE080A10EE105A94ED030AD4ED11
:100A0000050A94ED011A00EE810AF0EE408A18EE14
:100A1000900A10F079FD41EC1E0BB0EE4E0AF0EE9C
:100A20006E0A0BF03FFDB0EE40DAF0EE60DA94EDC6
:100A3000040AF2EE000A20EE200A10EE101A084610
:100A400010F062FD53EC1D2BCDE900019DED000B74
:100A500051EC100B10F062FA41EC1B0B28EE080A67
:100A600010EE101A084610F04FFD41EC1C0B53EC31
:100A70001B2B0FF09DFF41EC1A0BB0EE4A0AF0EE73
:100A80006A0A0CF093FFB0EE409AF0EE609A51ECD7
:100A9000190B0FF05BFF0290284610F035FD41EC7A
:100AA000190B18EE900A10F02FFD41EC1B0BB0EE65
:100AB0004B0AF0EE6B0A0BF0F5FCB0EE40AAF0EE3C
:100AC00060AA53EC192B51EC1A0B10F025FB14D231
:100AD000B0EE680A09F016F9DDED020A70EEC80AF8
:100AE00020EE200AB0EE001AC0EE010A94ED010AD1
:100AF00030EE800AB0EE40FA09E0D4ED050A88EE47
:100B0000A00AD4ED010A30EE200AB0EE40FA18EE49
:100B1000100A10F0F9FC41EC190B1FEE100A10F04E
:100B2000F3FC41EC1B0BB0EE4B0AF0EE6B0A0BF042
:100B3000B9FCB0EE40AAF0EE60AA53EC192B51ECD0
:100B40001A0B10F0E9FA0CD2B0EE4F0A09F0DAF8FD
:100B5000D4ED040ABFEE001A60EE810A60EE20FABE
:100B600009E094ED040AFFEE000A20EE200A20EED0
:100B70000F0AC0EE08FA94ED000AD4ED060A94EDCF
:100B8000011A00EE810A84ED000A94ED010AD4ED09
:100B9000060A00EEAF0A84ED010A03B0BDEC108B2B
:100BA00030BD000000000000B0EE401A70EEC11A27
:100BB000B0EE610ADFED0D1AB4EEE10AF1EE10FAC3
:100BC00006DBDFED0B1A70EE611AB0EE610A0CE085
:100BD000DFED081AB4EEE10AF1EE10FA05D2DFED0E
:100BE000041A70EE211AB0EE610A70470000344317
:100BF0000000B443000034C32DE9F0472DED0C8B09
:100C00008046894614461D46149EDDED159A169FB2
:100C10009DED17AAB3EE040AF0EE40AAB8F8020060
:100C2000A0F6320000EE100AB8EEC00AB0EE409A0C
:100C3000204610F024F941EC1B0B19EE100A10F0BD
:100C400063FC41EC1D0BB0EE4D0AF0EE6D0A0BF0AB
:100C500029FCB0EE40CAF0EE60CA53EC1B2B51ECFD
:100C60001C0B10F01FF905D29FED810A814880ED21
:100C7000020A30E0B5EEC09AF1EE10FA13DD00EE94
:100C8000104AB8EE400A79EE400A00EE105AB8EE6B
:100C9000C00A20EE800ADFED780A80EE201A75483F
:100CA00080ED021A17E0B5EEC09AF1EE10FA12D2FA
:100CB00000EE104AB8EE400A79EE000A00EE105A33
:100CC000B8EEC00A20EE800ADFED6C0A80EE201A32
:100CD000684880ED021AB8F80400A0F2827000EEB5
:100CE000100AB8EEC08A304610F0C9F841EC1B0B70
:100CF00018EE100A10F008FC41EC1D0BB0EE4D0A86
:100D0000F0EE6D0A0BF0CEFBB0EE40CAF0EE60CA1A
:100D100053EC1B2B51EC1C0B10F0C4F805D29FEDCB
:100D2000540A574880ED020A2CE0B5EEC08AF1EE75
:100D300010FA11DD00EE106AB8EE400A38EE400AF3
:100D4000F8EEE90A20EE200ADFED4E0A80EE201AC6
:100D50004B4880ED021A15E0B5EEC08AF1EE10FAAC
:100D600010D200EE106AB8EE400A38EE000AF8EE33
:100D7000E90A20EE200ADFED440A80EE201A4048FE
:100D800080ED021AB8F80600A0F6640000EE100A22
:100D9000F8EEC08A384610F072F841EC1B0B18EEE2
:100DA000900A10F0B1FB41EC1D0BB0EE4D0AF0EED5
:100DB0006D0A0BF077FBB0EE40CAF0EE60CA53EC60
:100DC0001B2B51EC1C0B10F06DF805D29FED280A7F
:100DD0002E4880ED020A2CE0F5EEC08AF1EE10FA02
:100DE00011DD00EE107AB8EE400A38EEC00AF8EED7
:100DF000CA0A20EE200ADFED260A80EE201A2348D8
:100E000080ED021A15E0F5EEC08AF1EE10FA10D26C
:100E100000EE107AB8EE400A38EE800AF8EECA0A00
:100E200020EE200ADFED1B0A80EE201A174880ED25
:100E3000021A104805F07CFE114805F079FE1348AF
:100E400005F076FE0B4890ED010AB1EE400A89EDFF
:100E50007C0A0B4890ED010A89ED7D0A0B4890ED64
:100E6000010A89ED7E0ABDEC0C8BBDE8F08700001D
:100E700000000000F00F002000D002C50080F9C47F
:100E80000410002000C0EFC4007007C51810002037
:100E90000020F24400F0054591F8642A7C4B1B7851
:100EA0009A421FDD01F6C412794B1B7802EB8302D4
:100EB00092ED000A774AD2ED000AB4EEE00AF1EEB4
:100EC00010FA0FD8724A1278521C714B1A70002314
:100ED000C0F8FC319FED700A80ED100A9FED6E0A9C
:100EE00080ED250A91F8652A6C4B1B789A421BDD30
:100EF00001F61422694B1B7802EB830292ED000A83
:100F0000674AD2ED000AB4EEE00AF1EE10FA0BD80F
:100F1000624A1278521C614B1A700023C0F80832E2
:100F20009FED5D0A80ED4F0A91F8652A5B4B1B78B7
:100F30009A420BD15B4A1278012A07D19FED560ADB
:100F4000574A82ED000A0022564B1A7091F8652A22
:100F50004F4B1B789A420BD1524A1278012A07D183
:100F60009FED4D0A4B4A82ED000A00224D4B1A704C
:100F700091F8642A464B1B789A4271D14A4A1278FA
:100F80004AB1494A1278012A6AD191F8652A434B3D
:100F90001B789A427AD13F4A92ED000ADFED430A6C
:100FA000B4EEE00AF1EE10FA37D2394A1278521E46
:100FB00002EB420201EBC20292ED000A344A1278BF
:100FC000521E02EB420301F5F07202EBC302D2EDB6
:100FD000000A30EE200A80ED070A2D4A1278521ED0
:100FE00002EB420201EBC20292ED010A284A12789A
:100FF000521E02EB420301F5F07202EBC302D2ED86
:10100000010A30EE200A80ED1C0A9FED230A80EDD4
:10101000790A9FED210A80ED7A0A214A92ED000AB1
:10102000DFED220AB4EEE00AF1EE10FA19D21B4A03
:101030001278521E01F5F06303EB820292ED000A72
:10104000164A1278521E503303EB8202D2ED000A88
:1010500030EE200A80ED460A9FED0F0A80ED7B0AF4
:1010600014E000220A4B1A700C4B1A700023C0F8CF
:10107000FC31C0F80832C0F8043201220C4B1A705F
:1010800007220C4B1A7001220B4B1A70704700009C
:10109000D20F0020C40F002000000000D30F00205A
:1010A000C80F0020BF0F0020C00F0020EC51B83E39
:1010B000A80F0020980D0020A90F0020F0EE401A84
:1010C000F4EEE01AF1EE10FA02D2B0EE600A7047C8
:1010D000F4EEC11AF1EE10FA02DDB0EE410AF6E7C5
:1010E000B0EE610AF3E7000000BFDFED150AB4EED1
:1010F000E00AF1EE10FA06DBDFED120A70EE600A8C
:10110000B0EE600A0CE0DFED100AB4EEE00AF1EE9A
:1011100010FA05D2DFED0B0A70EE200AB0EE600A7D
:10112000DFED070AB4EEE00AF1EE10FADDDADFEDEA
:10113000060AB4EEE00AF1EE10FAD6D370470000CA
:10114000DB0F4940DB0FC940DB0F49C070B52DED07
:101150000C8B05460C46B0EE408A284600F088F815
:10116000204600F085F8DFED3F0A78EE200AB0EE69
:10117000600A0BF0EFF8D5ED000A60EE208ADFED93
:10118000390A78EE200AB0EE600A0CF047FBD5ED84
:10119000010A40EE808AC4ED008ADFED320A78EE63
:1011A000200AB0EE600A0CF039FBD5ED000AF1EE32
:1011B000600A60EE208ADFED2B0A78EE200AB0EE9E
:1011C000600A0BF0C7F8D5ED010A40EE808AC4ED45
:1011D000018A94ED010A10EE101A084610F094F9F5
:1011E00041EC1D0B9FED201BB0EE4D0AF0EE6D0A99
:1011F0000BF0BAF9B0EE40BAF0EE60BA94ED000A26
:1012000010EE101A084610F07FF941EC1D0B9FED0F
:10121000161BB0EE4D0AF0EE6D0A0BF0A5F9B0EE1C
:1012200040CAF0EE60CA53EC1B2B51EC1C0B0FF0C4
:10123000BFFB41EC1A0BB0EE4A0AF0EE6A0A0CF062
:10124000B5FBB0EE409AF0EE609A51EC190B0FF03E
:101250007DFBE06095ED020A84ED020ABDEC0C8B8B
:1012600070BD0000DB0FC93F00000000000000401F
:1012700010B52DED088B0446207D012820D1D4ED3A
:10128000040A9FED4D1A60EE810AB0EE600A0BF081
:1012900061F8D4ED030A20EE200A84ED000AD4EDB3
:1012A000040A9FED451A60EE810AB0EE600A0CF068
:1012B000B5FAD4ED030A20EE200A84ED010A78E0A5
:1012C000207D002875D194ED011AF0EE410A94EDCD
:1012D000001AB0EE410A02F0CBF884ED030A94ED57
:1012E000010A10EE101A084610F00EF941EC190B25
:1012F000B0EE490AF0EE690A0BF0D4F8B0EE408A7D
:10130000F0EE608A9FED2D0B53EC102B51EC180B77
:101310000FF0C8FD20D294ED000A10EE101A084616
:1013200010F0F2F841EC190BB0EE490AF0EE690A40
:101330000BF0B8F8B0EE408AF0EE608A9FED1F0B1C
:1013400053EC102B51EC180B0FF0ACFD04D29FEDB9
:101350001D0A84ED040A2CE094ED000A10EE101A28
:10136000084610F0D1F841EC1A0B94ED010A10EE8A
:10137000101A084610F0C8F841EC1B0BB0EE4A1AE0
:10138000F0EE6A1AB0EE4B0AF0EE6B0A0AF08CFD32
:10139000B0EE409AF0EE609A9FED0B0B53EC102BE1
:1013A00051EC190B0FF0C0FB41EC180B0FF0CEFA0B
:1013B0002061BDEC088B10BD35FA8E3CF168E388E6
:1013C000B5F8E43E00000000000000A046DF913FB9
:1013D00010B5044694ED0B0A84ED430A94ED0A0A15
:1013E00084ED420A94F8200120B1012813D002288C
:1013F0005DD12DE094ED431AF0EE410A94ED471AC9
:10140000B0EE410A04F1340006F044FE94ED180AEF
:1014100084ED0C0A4CE094ED421AF0EE410A94ED92
:10142000461AB0EE410A04F1880006F033FE94ED4E
:10143000431AF0EE410A94ED2D1AB0EE410A04F180
:10144000340006F027FE94ED180A84ED0C0A2FE014
:1014500094ED460A84ED3E0A04F1DC00FFF7AEFA93
:1014600094ED421AF0EE410A94ED371AB0EE410ABB
:1014700004F1880006F00EFE94ED2D1ADFED0D1A32
:1014800021EE211AD4ED381A9FED0B2A01EE821AB3
:10149000B0EE410A94ED431AF0EE410A04F1340033
:1014A00006F0F8FD94ED180A84ED0C0A00E000BF88
:1014B00000BF10BD3333333F9A99993E10B50248AF
:1014C00003F028F810BD00004413002010B50248B6
:1014D00003F020F810BD00008412002010B502486F
:1014E00003F018F810BD0000E412002010B5024807
:1014F00003F010F810BD0000C414002010B502481D
:1015000003F008F810BD00002415002010B50248B3
:1015100003F000F810BD0000A413002010B502482D
:1015200002F0F8FF10BD00008415002010B502483D
:1015300002F0F0FF10BD00000414002010B50248B6
:1015400002F0E8FF10BD0000E415002010B50248CD
:1015500002F0E0FF10BD000064140020014608788E
:1015600010381823B0FBF3F20848805CC865032AE2
:1015700005D908686FF30900001D886503E0086855
:101580006FF309008865886D70470000BC1801087A
:10159000014600208A6A8B69CBB932B1012A0DD08D
:1015A000022A03D0032A10D10EE000BFCB6A03F059
:1015B0008073B3F1807F00D1012007E0CB6AB3F1E3
:1015C000C07F00D1012001E000E000BF34E08B6962
:1015D000B3F5005F1AD132B1012A07D0022A03D035
:1015E000032A11D10AE000BF01200EE0CB6A03F00C
:1015F0008073B3F1807F00D1012006E0CB6AB3F1A4
:10160000C07F00D1012000E000BF15E032B1012A07
:1016100005D0022A04D0032A0CD103E000BF00BF8A
:10162000012008E0CB6A03F08073B3F1807F00D122
:10163000012000E000BF00BF704730B50468246897
:1016400024F4802405682C60046863608468402C5E
:1016500004D10468A2600468E16003E00468A1604A
:101660000468E26030BD00000188891E16293CD262
:10167000DFE801F00B0F13171B1F233B3B3B3B3BEA
:101680003B272B3B3B3B3B2F33370121184A117043
:101690002CE00421164A117028E00521144A11702B
:1016A00024E00121134A117020E00021114A117039
:1016B0001CE002210F4A117018E003210D4A11703D
:1016C00014E004210B4A117010E00521094A117041
:1016D0000CE00821074A117008E00721054A117043
:1016E00004E00621034A117000E000BF00BF70470C
:1016F000980D0020DC0C0020704700001CB58D48C0
:10170000007803283AD08C4890ED401AF0EE410A58
:1017100090ED3F1AB0EE410AFC3006F0BBFC864863
:1017200090ED161AF0EE410A90ED151AB0EE410A4E
:10173000543006F0AFFC804890ED2B1AF0EE410AD1
:1017400090ED2A1AB0EE410AA83006F0A3FC7A48C0
:1017500090ED011AF0EE410A90ED001AB0EE410A48
:1017600006F098FC7548FFF733FE7548FFF730FE2A
:101770007448FFF72DFE7448FFF72AFE6E4890F874
:10178000500101284ED10CF04BFC6B48D0ED350ACE
:101790006E4890ED031A70EE810AB0EE600A9FED7C
:1017A0006C1ADFED6C0AFFF789FC6B4880ED030AC9
:1017B0006148D0ED0B0A654890ED021A70EE810A7F
:1017C000B0EE600A9FED621ADFED620AFFF776FC69
:1017D000614880ED020A5848D0ED4A0A5B4890ED16
:1017E000011A70EE810AB0EE600A9FED591ADFED22
:1017F000590AFFF763FC584880ED010A4E48D0EDC6
:10180000200A524890ED001A70EE810AB0EE600A8C
:101810009FED4F1ADFED4F0AFFF750FC4E4880ED69
:10182000000A37E04448D0ED350AB0EE600A9FED7B
:10183000481ADFED480AFFF741FC474880ED030AEC
:101840003D48D0ED0B0AB0EE600A9FED411ADFED86
:10185000410AFFF733FC404880ED020A3648D0EDDC
:101860004A0AB0EE600A9FED3A1ADFED3A0AFFF736
:1018700025FC394880ED010A2F48D0ED200AB0EE52
:10188000600A9FED331ADFED330AFFF717FC324889
:1018900080ED000A304890ED010ABDEEC00A10EE5E
:1018A000100A00B2254991ED0C0ABDEEC00A10EEF7
:1018B000101A09B2CDE90010274890ED030ABDEED9
:1018C000C00A10EE100A03B21E4890ED0C0ABDEEDD
:1018D000C00A10EE100A02B24FF400711F48FEF762
:1018E00059FF1D4890ED000ABDEEC00A10EE100A27
:1018F00000B2134991ED0C0ABDEEC00A10EE101AA9
:1019000009B2CDE90010144890ED020ABDEEC00AFC
:1019100010EE100A03B20C4890ED0C0ABDEEC00A9E
:1019200010EE100A02B24FF400710D48FEF732FFBC
:101930001CBD0000980D0020880B0020C807002067
:101940009C060020F408002070050020A460002000
:1019500000007A4600007AC6B46000202C100020F7
:101960005410002072B600BFFEE70000014669B9BE
:10197000074890ED010ADFED070AB4EEE00AF1EE48
:1019800010FA01D2012070470020FCE700BFFAE7FF
:10199000DC6000200080094510B52DED048BFE4869
:1019A0000078092881F0EB84DFE810F009000201DB
:1019B0004E019002AD05DC06C309C30AEC0BF748E3
:1019C000007828B90020F64908600120F349087022
:1019D0000021F44880F8001280F801120020EE493E
:1019E00008744874B3EE080AEF4880ED0E0AB1EEB1
:1019F000000A80ED0F0A9FEDED0A80ED050A9FEDCC
:101A0000EC0A80ED060A9FEDEA0A80ED070A9FEDD9
:101A1000E90AE94880ED040A9FEDE80A80ED050A2D
:101A20009FEDE70A80ED0A0A9FEDE10A80ED0B0ABF
:101A30009FEDDF0A80ED0C0A9FEDDE0AE14880EDA4
:101A4000040A9FEDDE0A80ED050A9FEDDD0A80EDB8
:101A50000A0A9FEDD70A80ED0B0A9FEDD50A80EDAB
:101A60000C0A084690ED050AF8EEC00A9FEDD61A5A
:101A70009FEDD60A10EE810A9FEDD51AC0EE010A3D
:101A80009FEDD40A30EE800AD348D0ED000A30EE44
:101A9000200A084680ED010A90ED050AF8EEC00A1A
:101AA0009FEDC91A9FEDC90A10EE810ADFEDCB0A3E
:101AB00080EE201A9FEDC70A31EE400AC848D0EDEB
:101AC000000A30EE200A084680ED020A9FEDC50AA2
:101AD00080ED030AC44890ED050A0846D0ED010ADE
:101AE00030EE600A10EE101A08460FF00DFD41ECC2
:101AF000190BB0EE490AF0EE690A0AF0D3FCB0EE19
:101B0000408AF0EE608A9FEDB90B53EC102B51EC3C
:101B1000180B0FF0C7F949D2B64890ED050A9E4858
:101B2000D0ED020A30EE600A10EE101A08460FF0EF
:101B3000EBFC41EC190BB0EE490AF0EE690A0AF031
:101B4000B1FCB0EE408AF0EE608A9FEDA80B53EC3A
:101B5000102B51EC180B0FF0A5F927D2A64890EDE9
:101B6000030A8D48D0ED030A30EE600A10EE101A19
:101B700008460FF0C9FC41EC190BB0EE490AF0EE33
:101B8000690A0AF08FFCB0EE408AF0EE608A9FEDA1
:101B90009B0B53EC102B51EC180B0FF083F905D273
:101BA00001207D49087000207C49087001F0E8BBE5
:101BB00000217C4880F8001280F80112002077494B
:101BC0000870754908744874B3EE0B0A764880EDC6
:101BD0000E0AB1EE000A80ED0F0A9FED740A80ED47
:101BE000050A9FED730A80ED060A9FED710A80EDEC
:101BF000070A9FED840A704880ED040A9FED820A6F
:101C000080ED050A9FED6E0A80ED0A0A9FED680AD5
:101C100080ED0B0A9FED660A80ED0C0A9FED790AB4
:101C2000684880ED040A9FED780A80ED050A9FED73
:101C3000640A80ED0A0A9FED5E0A80ED0B0A9FEDB3
:101C40005C0A80ED0C0AB1E75448007828B90020FE
:101C5000534908600120514908700021514880F81B
:101C6000001206204F49087000214E4880F80112EA
:101C700000204949087448749FED640A4A4880ED81
:101C80000E0AB1EE040A80ED0F0A9FED610A80EDA5
:101C9000050A9FED470A80ED060A9FED450A80ED93
:101CA000070AB7EE000A444880ED040A9FED590A7E
:101CB00080ED050A9FED580A80ED0A0A9FED3C0A67
:101CC00080ED0B0A9FED3A0A80ED0C0AB7EE000A90
:101CD0003C4880ED040A9FED4F0A80ED050A9FED18
:101CE0004E0A80ED0A0A9FED320A80ED0B0A9FED45
:101CF000300A80ED0C0A084690ED050AF8EEC00A9D
:101D00009FED311AB2EE000A00EE810A9FED301A03
:101D1000C0EE010A9FED2F0A30EE800A2E48D0ED6A
:101D2000000A30EE200A084680ED010A90ED050A0F
:101D3000F8EEC00A9FED241AB2EE000A00EE810A06
:101D4000DFED260A80EE201A9FED220A31EE400ACE
:101D50002348D0ED000A30EE200A084680ED020A42
:101D60009FED2E0A80ED030A1F4890ED050A0846F4
:101D7000D0ED010A30EE600A10EE101A08460FF09E
:101D8000C3FB41EC190BB0EE490AF0EE690A0AF008
:101D900089FBB0EE408A43E0DC0C0020F40C00200C
:101DA000F80C0020980D0020340A00200050434712
:101DB0006F12833A6666663F800A0020295C8F3D79
:101DC00000803B45D40A00200000B4430000B44228
:101DD000F2D21041D7A3AA41280B0020F2D210C1A1
:101DE0002C0B0020B81E05BEB45F00200000004090
:101DF0008941E43FF45F0020905F0020000000A0D4
:101E00009999B93F3333733F8FC2753D0000C84283
:101E10008096984A0AD7A33D00401C46FC62093FC1
:101E2000F0EE608A1FED0F0B53EC102B51EC180BEA
:101E30000FF038F849D2FE4890ED050AFD48D0ED84
:101E4000020A30EE600A10EE101A08460FF05CFB32
:101E500041EC190BB0EE490AF0EE690A0AF022FBD8
:101E6000B0EE408AF0EE608A1FED200B53EC102B91
:101E700051EC180B0FF016F827D2EF4890ED030A3B
:101E8000EC48D0ED030A30EE600A10EE101A084656
:101E90000FF03AFB41EC190BB0EE490AF0EE690A7B
:101EA0000AF000FBB0EE408AF0EE608A1FED2D0BC9
:101EB00053EC102B51EC180B0EF0F4FF05D203205D
:101EC000DC4908700020DD4908706FE6D948407889
:101ED00030B101287DD002287CD003287BD1CCE210
:101EE000D648007890B90020D54908600120D34930
:101EF0000870D04908740021D24880F800120620EA
:101F0000D04908700121CF4880F801120020FFF766
:101F10002DFD00287BD00120C64948749FEDCA0AD8
:101F2000CA4880ED0E0AB1EE040A80ED0F0A9FED5B
:101F3000C80A80ED050A1FED620A80ED060A1FED52
:101F4000640A80ED070AB0EE000AC24880ED040A78
:101F50009FEDC10A80ED050A9FEDC00A80ED0A0AD7
:101F60001FED6D0A80ED0B0A1FED6F0A80ED0C0A64
:101F7000B0EE000ABA4880ED040A9FEDB70A80ED82
:101F8000050A9FEDB60A80ED0A0A1FED770A80ED7B
:101F90000B0A1FED790A80ED0C0A084690ED050A40
:101FA000F8EEC00A1FED781A9FEDAE0A00EE810A26
:101FB0001FED791AC0EE010A1FED7A0A30EE800A91
:101FC000A948D0ED000A30EE200A084680ED010A4B
:101FD00002E098E0B9E193E290ED050AF8EEC00A5C
:101FE0001FED871A9FED9F0A00EE810A1FED851AEB
:101FF000C0EE010A1FED890A30EEC00A9B48D0ED01
:10200000000A30EE200A084680ED020A00E003E0F4
:102010009FED970A80ED030A964890ED050A8548E2
:10202000D0ED010A30EE600A10EE101A08460FF0EB
:102030006BFA41EC190BB0EE490AF0EE690A0AF0AE
:1020400031FAB0EE408AF0EE608A9FED8B0B53ECD4
:10205000102B51EC180B0EF025FF53D2744890ED65
:10206000050A7448D0ED020A30EE600A10EE101A2C
:1020700008460FF049FA41EC190BB0EE490AF0EEB0
:10208000690A0AF00FFAB0EE408AF0EE608A9FED1E
:102090007A0B53EC102B51EC180B0EF003FF31D2DE
:1020A000654890ED030A6348D0ED030A30EE600AFC
:1020B00010EE101A08460FF027FA41EC190BB0EE9B
:1020C000490AF0EE690A0AF0EDF9B0EE408AF0EE46
:1020D000608A9FED6B0B53EC102B51EC180B0EF03C
:1020E000E1FE0FD2594890ED0E0ADFED570AB4EE2B
:1020F000600AF1EE10FA05D101204E494870002027
:102100004E490870FDE14D48007840B95E4880793D
:1021100028B100204A490860012048490870002180
:10212000484880F8001206204649087002214548B8
:1021300080F80112B3EE080A444880ED0E0AB1EEB1
:10214000000A80ED0F0A1FEDE70A80ED050A1FED7A
:10215000E80A80ED060A1FEDEA0A80ED070A1FED86
:10216000EB0A3C4880ED040A1FEDEC0A80ED050AFD
:102170001FEDED0A80ED0A0A1FEDF30A80ED0B0A50
:102180001FEDF50A80ED0C0A1FEDF60A344880EDCC
:10219000040A1FEDF60A80ED050A1FEDF70A80ED2F
:1021A0000A0A9FED3A0A80ED0B0A9FED380A80ED8E
:1021B0000C0A22480078012879D1214800680528B6
:1021C00075DD00201B49087401204874084690ED15
:1021D000050AF8EEC00A9FED2E1A9FED2E0A00EEBA
:1021E000810A9FED2D1AC0EE010A9FED2C0A30EEF8
:1021F000800A1D48D0ED000A30EE200A084680ED26
:10220000010A90ED050AF8EEC00A9FED211A9FED34
:10221000210A00EE810A9FED221AC0EE010A9FED0D
:102220001F0A30EEC00A1148D0ED000A3AE03EE045
:10223000F45F0020DC0C0020905F0020F40C0020F4
:10224000F80C0020980D002000001643340A0020EE
:1022500000247449800A0020CDCCCC3D0024F449F0
:10226000D40A00200000AA42280B00202C0B0020DA
:10227000A2917040B45F0020000000408941F43F0B
:10228000000000403333D33F510D00206F12833ADA
:102290000000B44300003443F2D21041D7A3AA4156
:1022A000F2D210C130EE200A084680ED020AFE4844
:1022B00090ED050AFD48D0ED010A30EE600A10EEFF
:1022C000101A08460FF020F941EC190BB0EE490A3C
:1022D000F0EE690A0AF0E6F8B0EE408AF0EE608AA5
:1022E0009FEDF30B53EC102B51EC180B0EF0DAFDB5
:1022F0002AD2F14890ED050AEC48D0ED020A30EE02
:10230000600A10EE101A08460FF0FEF841EC190BA7
:10231000B0EE490AF0EE690A0AF0C4F8B0EE408A5D
:10232000F0EE608A9FEDE20B53EC102B51EC180B92
:102330000EF0B8FD08D2DD48007C28B90220DB4948
:1023400048700020DD490870DBE0DC48007880B987
:102350000020DB4908600120D84908700021D948D5
:1023600080F800120620D74908700321D54880F86C
:102370000112D3480068B0F58C7F4DDD0020CB49B9
:10238000087448749FEDD00AD04880ED0E0AB1EE73
:10239000000A80ED0F0A9FEDCE0A80ED050A1FEDC1
:1023A000450A80ED060A1FED470A80ED070A9FEDFA
:1023B000C90AC94880ED040A9FEDC80A80ED050AE4
:1023C0009FEDC70A80ED0A0A1FED500A80ED0B0A47
:1023D0001FED520A80ED0C0A9FEDBE0AC14880ED48
:1023E000040A9FEDBE0A80ED050A9FEDBD0A80ED4F
:1023F0000A0A1FED5A0A80ED0B0A1FED5C0A80EDF8
:102400000C0A9FEDB90A084680ED030A0021AD4889
:1024100080F8001280F80112B44890ED030AA34836
:10242000D0ED030A30EE600A10EE101A08460FF0E5
:102430006BF841EC190BB0EE490AF0EE690A0AF0AC
:1024400031F8B0EE408AF0EE608A1FED730B53EC6A
:10245000102B51EC180B0EF025FD0DD29348407C4B
:1024600050B90020914908704870944908708F480D
:102470004069401C8D49486143E000208F49087045
:10248000B3EE080A914880ED0E0AB1EE000A80ED25
:102490000F0A9FED970A80ED050A1FED840A80ED73
:1024A000060A1FED860A80ED070A9FED8A0A8A4810
:1024B00080ED040A9FED890A80ED050A9FED8D0AE3
:1024C00080ED0A0A1FED8F0A80ED0B0A1FED910ABD
:1024D00080ED0C0A9FED7F0A824880ED040A9FED93
:1024E0007F0A80ED050A9FED830A80ED0A0A1FED41
:1024F000990A80ED0B0A1FED9B0A80ED0C0A00E0A3
:1025000000BF00BFE1E46D48007828B900206C49A5
:10251000086001206949087000216A4880F80012AB
:102520000620684908700021664880F801120020E2
:102530005E4908744874B3EE080A644880ED0E0AD8
:10254000B1EE000A80ED0F0A9FED690A80ED050AE1
:102550001FEDB20A80ED060A1FEDB40A80ED070AEE
:102560009FED5C0A5C4880ED040A9FED5C0A80EDFB
:10257000050A9FED600A80ED0A0A1FEDBC0A80ED96
:102580000B0A1FEDBE0A80ED0C0A9FED520A55485A
:1025900080ED040A9FED510A80ED050A9FED550A72
:1025A00080ED0A0A1FEDC70A80ED0B0A1FEDC90A6C
:1025B00080ED0C0A084690ED050AF8EEC00A1FED02
:1025C000CC1A9FED4D0A10EE810A1FEDCD1AC0EE18
:1025D000010A1FEDCE0A30EE800A4848D0ED000A0D
:1025E00030EE200A084680ED010A90ED050AF8EE6B
:1025F000C00A1FEDD91A9FED400A10EE810A1FEDA7
:10260000D81AC0EE010A1FEDDB0A30EEC00A3C48C2
:10261000D0ED000A30EE200A084680ED020A9FED58
:10262000390A80ED030A204890ED050A0846D0EDEE
:10263000010A30EE600A10EE101A08460EF064FF30
:1026400041EC190BB0EE490AF0EE690A09F02AFFD5
:10265000B0EE408AF0EE608A9FED150B53EC102B24
:1026600051EC180B0EF01EFC7BD2134890ED050ABE
:102670000E48D0ED020A30EE600A10EE101A08463D
:102680000EF042FF41EC190BB0EE490AF0EE690A78
:1026900009F008FFB0EE408AF0EE608A9FED040B6F
:1026A00053EC102B30E00000B45F0020DC0C002065
:1026B000000000408941E43FF45F0020F40C00205A
:1026C000F80C0020980D00200000C842340A0020B9
:1026D000286BEE4D6666663F800A0020295C8F3DC0
:1026E00000401C46D40A0020295CEF3F905F002088
:1026F0000050434700803B4500003E43280B00202C
:102700002C0B0020AE47114051EC180B0EF0CAFB09
:1027100027D2FE4890ED030AFD48D0ED030A30EEC3
:10272000600A10EE101A08460EF0EEFE41EC190B8E
:10273000B0EE490AF0EE690A09F0B4FEB0EE408A44
:10274000F0EE608A9FEDF30B53EC102B51EC180B5D
:102750000EF0A8FB05D20520ED4908700020EF49D6
:102760000870CFE6EA48807830B101287CD0022892
:102770007BD003287AD1D8E2E848007880B90020DD
:10278000E74908600120E54908700021E54880F824
:1027900000120620E34908700421E24880F8011283
:1027A0000020DB49087401204874B3EE080ADE48B3
:1027B00080ED0E0AB1EE000A80ED0F0A1FED340A1B
:1027C00080ED050A9FEDD90A80ED060A9FEDD70A34
:1027D00080ED070A1FED410AD54880ED040A1FED80
:1027E000410A80ED050A1FED3D0A80ED0A0A9FEDC2
:1027F000CF0A80ED0B0A9FEDCD0A80ED0C0A1FED8C
:102800004B0ACC4880ED040A1FED4C0A80ED050A06
:102810001FED480A80ED0A0A9FEDC40A80ED0B0AFD
:102820009FEDC20A80ED0C0A084690ED050AF8EE0D
:10283000C00A9FEDC11A1FED500A10EE810A9FEDEC
:10284000BF1AC0EE010A9FEDBE0A30EE800ABD48F5
:10285000D0ED000A30EE200A084680ED010A90ED26
:10286000050AF8EEC00A02E044E022E15EE29FEDD4
:10287000B21A1FED5F0A10EE810A9FEDB31AC0EE87
:10288000010A9FEDAF0A30EEC00AB048D0ED000A51
:1028900030EE200A084680ED020A9FEDAD0A80ED79
:1028A000030A9A4890ED030A0846D0ED030A30EE79
:1028B000600A10EE101A08460EF026FE41EC190BC5
:1028C000B0EE490AF0EE690A09F0ECFDB0EE408A7C
:1028D000F0EE608A9FED9F0B53EC102B51EC180B20
:1028E0000EF0E0FA05D201208949887000208B495A
:1028F00008701CE28948007828B9002088490860DF
:1029000001208649087086480068B0F5FA7F7BDDB3
:1029100001207F4908744874B3EE080A824880EDAC
:102920000E0AB1EE000A80ED0F0A1FED8F0A80ED4E
:10293000050A9FED7E0A80ED060A9FED7C0A80ED78
:10294000070A1FED9C0A7A4880ED040A1FED9D0AD4
:1029500080ED050A1FED990A80ED0A0A9FED730AC2
:1029600080ED0B0A9FED710A80ED0C0A1FEDA70A9E
:10297000704880ED040A1FEDA70A80ED050A1FEDDF
:10298000A30A80ED0A0A9FED690A80ED0B0A9FED0C
:10299000670A80ED0C0A084690ED050AF8EEC00AB9
:1029A0009FED651A9FED6D0A10EE810A9FED631A87
:1029B000C0EE010A9FED620A30EE800A6148D0ED58
:1029C000000A30EE200A084680ED010A90ED050A63
:1029D000F8EEC00A9FED581A9FED600A10EE810ACA
:1029E000DFED590A80EE201A9FED550A31EE400ABC
:1029F0005648D0ED000A30EE200A084680ED020A63
:102A00009FED530A80ED030A554890ED050A4048B2
:102A1000D0ED010A30EE600A10EE101A08460EF0F2
:102A200073FD41EC190BB0EE490AF0EE690A09F0AA
:102A300039FDB0EE408AF0EE608A9FED4A0B53EC10
:102A4000102B51EC180B0EF02DFA31D2474890EDB7
:102A5000050A2F48D0ED020A30EE600A10EE101A77
:102A600008460EF051FD41EC190BB0EE490AF0EEAC
:102A7000690A09F017FDB0EE408AF0EE608A9FED1A
:102A8000390B53EC102B51EC180B0EF00BFA0FD244
:102A90001F48007C01280BD102201D4988700020AE
:102AA0001E49087000211F4880F8001280F80112AA
:102AB0003DE11A48007828B9002019490860012032
:102AC000164908700120124908744874B3EE080AC8
:102AD000154880ED0E0AB1EE000A80ED0F0AB2EE45
:102AE000000A80ED050A9FED110A80ED060A9FEDB0
:102AF0000F0A80ED070A9FED1E0A0D4880ED040ABB
:102B00009FED1C0A80ED050A36E00000905F002072
:102B1000DC0C0020000000A09999B93FF40C0020C3
:102B2000F80C0020980D0020340A00206F12833A20
:102B3000800A0020D40A00200000B443F2D21041E1
:102B4000D7A3AA41280B0020F2D210C12C0B0020E1
:102B500014AE7740000000A09999D93F0000874348
:102B6000B45F0020000000408941F43FF45F002082
:102B70006666663F295C8F3D9FEDFE0A80ED0A0A7E
:102B80001FED160A80ED0B0A1FED180A80ED0C0AE6
:102B90001FED090AF84880ED040A1FED0A0A80EDCE
:102BA000050A9FEDF40A80ED0A0A1FED200A80ED68
:102BB0000B0A1FED220A80ED0C0A084690ED050A6B
:102BC000F8EEC00A1FED241A9FEDEC0A10EE810A00
:102BD0005FED260A80EE201A1FED270A31EE000A6B
:102BE000E748D0ED000A30EE200A084680ED010AE1
:102BF00090ED050AF8EEC00A1FED311A9FEDDF0ACD
:102C000010EE810A1FED301AC0EE010A1FED340AE2
:102C100030EEC00ADB48D0ED000A30EE200A08464C
:102C200080ED020A9FEDD80A80ED030AD7480068BC
:102C3000B0F5617F02DD002008744874D44890ED3F
:102C4000030AD448D0ED030A30EE600A10EE101AE1
:102C500008460EF059FC41EC190BB0EE490AF0EEB3
:102C6000690A09F01FFCB0EE408AF0EE608A9FED21
:102C7000CA0B53EC102B51EC180B0EF013F943D286
:102C8000C74890ED050AC348D0ED010A30EE600A4E
:102C900010EE101A08460EF037FC41EC190BB0EE9E
:102CA000490AF0EE690A09F0FDFBB0EE408AF0EE49
:102CB000608A9FEDBC0B53EC102B51EC180B0EF0FF
:102CC000F1F821D2B94890ED050AB248D0ED020AD8
:102CD00030EE600A10EE101A08460EF015FC41ECBA
:102CE000190BB0EE490AF0EE690A09F0DBFBB0EE11
:102CF000408AF0EE608A9FEDAB0B53EC102B51EC49
:102D0000180B0EF0CFF804D3A0480068B0F5966F0A
:102D10000ADD00209F4908708870A54908709D4809
:102D20004069401E9B49486101E000E000BF00BFD0
:102D300026E39F48007828B90020944908600120C4
:102D40009B4908700120934908744874B3EE080A3F
:102D5000984880ED0E0AB1EE000A80ED0F0AB2EE3F
:102D6000000A80ED050A1FED8F0A80ED060A1FEDAF
:102D7000910A80ED070A1FED820A8F4880ED040A50
:102D80001FED840A80ED050AB3EE0E0A80ED0A0AF3
:102D90001FED9A0A80ED0B0A1FED9C0A80ED0C0ACC
:102DA0001FED8D0A744880ED040A1FED8E0A80ED38
:102DB000050AB3EE0E0A80ED0A0A1FEDA40A80EDA3
:102DC0000B0A1FEDA60A80ED0C0A084690ED050AD5
:102DD000F8EEC00A1FEDA81AB2EE040A00EE810A4E
:102DE0001FEDAA1AC0EE010A1FEDAB0A30EE800AF1
:102DF0006348D0ED000A30EE200A084680ED010A53
:102E000090ED050AF8EEC00A1FEDB51AB2EE040AFD
:102E100000EE810A5FEDB40A80EE201A1FEDB80AB9
:102E200031EE400A5748D0ED000A30EE200A08463D
:102E300080ED020A9FED540A80ED030A53480068B2
:102E4000B0F5617F02DB002008744874544890EDAF
:102E5000050A5048D0ED010A30EE600A10EE101A53
:102E600008460EF051FB41EC190BB0EE490AF0EEAA
:102E7000690A09F017FBB0EE408AF0EE608A9FED18
:102E8000490B53EC102B51EC180B0EF00BF843D2FE
:102E9000464890ED050A3F48D0ED020A30EE600A40
:102EA00010EE101A08460EF02FFB41EC190BB0EE95
:102EB000490AF0EE690A09F0F5FAB0EE408AF0EE40
:102EC000608A9FED380B53EC102B51EC180B0DF072
:102ED000E9FF21D22E4890ED030A2E48D0ED030AD7
:102EE00030EE600A10EE101A08460EF00DFB41ECB1
:102EF000190BB0EE490AF0EE690A09F0D3FAB0EE08
:102F0000408AF0EE608A9FED240B53EC102B51ECBD
:102F1000180B0DF0C7FF04D31C480068B0F5966F7E
:102F200006DD00201B490870887048702049087031
:102F300026E21F48007880B900201449086001206B
:102F40001B49087000211D4880F8001206201B490B
:102F500008700021194880F8011201200D490874F9
:102F600048749FED170A134880ED0E0AB1EE040A6B
:102F700028E0000000000C42D40A00200000AF430B
:102F8000280B00202C0B0020DC1F1440F80C002024
:102F9000905F0020DC0C0020000000000000E03FFB
:102FA000B45F00200000000000000040F45F00203B
:102FB000F40C0020340A0020800A0020980D002024
:102FC0000000164380ED0F0A9FEDEF0A80ED050A21
:102FD0009FEDEE0A80ED060A9FEDEC0A80ED070AF0
:102FE000B0EE000AEA4880ED040A9FEDEA0A80ED9F
:102FF000050A9FEDE90A80ED0A0A9FEDE40A80EDDB
:103000000B0A9FEDE20A80ED0C0AB0EE000AE348DD
:1030100080ED040A9FEDDF0A80ED050A9FEDDE0AD0
:1030200080ED0A0A9FEDD90A80ED0B0A9FEDD70AC1
:1030300080ED0C0A084690ED050AF8EEC00A9FEDF7
:10304000D81A9FEDD80A00EE810ADFEDD70A80EE8C
:10305000201A9FEDD60A31EE000AD548D0ED000ABD
:1030600030EE200A084680ED010A90ED050AF8EEE0
:10307000C00A9FEDCB1A9FEDCB0A00EE810ADFED6F
:10308000CD0A80EE201A9FEDC90A31EE400ACA48E7
:10309000D0ED000A30EE200A084680ED020A9FEDCE
:1030A000C70A80ED030AC64890ED050A0846D0ED30
:1030B000010A30EE600A10EE101A08460EF024FAEB
:1030C00041EC190BB0EE490AF0EE690A09F0EAF991
:1030D000B0EE408AF0EE608A9FEDBA0B53EC102BF5
:1030E00051EC180B0DF0DEFE4BD2B84890ED050AFE
:1030F000B748D0ED020A30EE600A10EE101A08460A
:103100000EF002FA41EC190BB0EE490AF0EE690A32
:1031100009F0C8F9B0EE408AF0EE608A9FEDA90B85
:1031200053EC102B51EC180B0DF0BCFE29D2A94822
:1031300090ED030AA648D0ED030A30EE600A10EEC7
:10314000101A08460EF0E0F941EC190BB0EE490AEE
:10315000F0EE690A09F0A6F9B0EE408AF0EE608A56
:103160009FED9D0B53EC102B51EC180B0DF09AFEBC
:1031700007D201209649087000204870887098494D
:103180000870FDE09648007828B90020954908604D
:103190000120934908700021934880F8001206200E
:1031A000914908700021904880F801120020884958
:1031B000087448749FED8D0A8D4880ED0E0AB1EEBB
:1031C000040A80ED0F0A9FED8B0A80ED050A9FED42
:1031D0006F0A80ED060A9FED6D0A80ED070AB7EED3
:1031E000000A6B4880ED040A9FED830A80ED050A12
:1031F0009FED820A80ED0A0A9FED640A80ED0B0ABA
:103200009FED620A80ED0C0AB7EE000A634880ED7C
:10321000040A9FED790A80ED050A9FED780A80ED9A
:103220000A0A9FED5A0A80ED0B0A9FED580A80EDBD
:103230000C0A084690ED050AF8EEC00A9FED581AF0
:10324000B2EE000A00EE810ADFED570A80EE201A86
:103250009FED560A31EE000A5548D0ED000A30EED7
:10326000200A084680ED010A90ED050AF8EEC00A32
:103270009FED4B1AB2EE000A00EE810ADFED4D0A17
:1032800080EE201A9FED490A31EE400A4A48D0EDFF
:10329000000A30EE200A084680ED020A9FED580A27
:1032A00080ED030A464890ED050A0846D0ED010A74
:1032B00030EE600A10EE101A08460EF025F941ECC7
:1032C000190BB0EE490AF0EE690A09F0EBF8B0EE1E
:1032D000408AF0EE608A9FED4B0B53EC102B51ECC3
:1032E000180B0DF0DFFD49D2384890ED050A38483B
:1032F000D0ED020A30EE600A10EE101A08460EF009
:1033000003F941EC190BB0EE490AF0EE690A09F035
:10331000C9F8B0EE408AF0EE608A9FED3A0B53ECAC
:10332000102B51EC180B0DF0BDFD27D2294890ED64
:10333000030A2748D0ED030A30EE600A10EE101A97
:1033400008460EF0E1F841EC190BB0EE490AF0EE38
:10335000690A09F0A7F8B0EE408AF0EE608A9FEDA6
:103360002B0B53EC102B51EC180B0DF09BFD05D2E1
:1033700001201749087000201949087000E000BFBB
:1033800000BFBDEC048B10BD002474496F12833A5A
:10339000800A0020CDCCCC3D0024F449D40A002082
:1033A0000000B4430000AA42F2D21041D7A3AA41C0
:1033B000280B0020F2D210C12C0B0020A2917040EB
:1033C000B45F0020000000408941F43FF45F00201A
:1033D000DC0C0020905F0020000000403333D33F1E
:1033E000F40C0020F80C0020980D00200000C842CA
:1033F000340A00208096984A0AD7A33D00401C4614
:10340000FC62093F000000408941E43F000000A049
:103410009999B93F70B52DED068B04460D46B0EE77
:10342000408AF0EE608AB0EE419AF0EE619AB0EE1A
:1034300042AA84ED0D8A04F11800FDF7BFFA94ED5D
:10344000060A84ED030AC4ED028A84ED019AC4EDF4
:10345000049A84ED05AA20460AF0B8FE112204F170
:103460004001284603F0C4F9BDEC068B70BD000096
:1034700010B52DED0C8BB0EE408AF0EE608A18EEA0
:10348000900A0EF041F841EC1D0B9FED1C1BB0EEB5
:103490004D0AF0EE6D0A09F067F8B0EE40BAF0EEB2
:1034A00060BA18EE100A0EF02FF841EC1D0B9FEDDC
:1034B000131BB0EE4D0AF0EE6D0A09F055F8B0EEB0
:1034C00040CAF0EE60CA53EC1B2B51EC1C0B0DF004
:1034D0006FFA41EC1A0BB0EE4A0AF0EE6A0A0AF0F3
:1034E00065FAB0EE409AF0EE609A51EC190B0DF0CF
:1034F0002DFA00EE100ABDEC0C8B10BD0000000090
:10350000000000404A780B7842EA032200EE102ABD
:10351000B8EEC00A80ED080A90ED080A704730B591
:1035200003464FF6FF728C7804F080043CB114041B
:103530008D7844EA0524CD7844EA050003E0CC7890
:103540008D7844EA052000EE100AB8EEC00A30BDBE
:1035500010B5024692F82030012B01D0022B06D183
:1035600010684069084314686061002010BD506A0B
:1035700040F4802050620120F8E7F0B504460D4683
:103580001E4694F8207020688368A86800B900E09F
:1035900000BF012F01D0022F7DD103F0806030B930
:1035A00003F0006018B903F0805000287ED0C3F308
:1035B0000161012088403060A86860B9B5F800C09A
:1035C000E86840EA4C5C206800F5C07000EB011030
:1035D000C0F800C00FE0D5E901C040EACC00D5F842
:1035E0000CC040EA0C00D4F800C00CF5C07C0CEB19
:1035F000011CCCF80000D5F810C0206800F5C070A0
:1036000000EB0110C0F804C0287D01280ED120680D
:1036100000F5C07000EB0110406840F4807C206829
:1036200000F5C07000EB0110C0F804C0D0790006AE
:1036300092F806C040EA0C4092F805C040EA0C201F
:1036400092F804C040EA0C00D4F800C00CF5C07C2D
:103650000CEB011CCCF80C00D078000692F802C0EC
:1036600040EA0C4092F801C040EA0C2092F800C0F9
:1036700040EA0C00D4F800C00CF5C07C0CEB011C37
:10368000CCF80800206800F5C07000EB011000685D
:1036900040F0010C01E00FE008E0206800F5C07088
:1036A00000EB0110C0F800C00020F0BD606A40F4DB
:1036B000001060620120F8E7606A40F480206062D8
:1036C0000120F2E7F0B504460A4694F82050012D97
:1036D00001D0022D7ED1424901F50071086840F009
:1036E00001000860086820F47C5008600868566A89
:1036F00040EA06200860107D00F01F06012000FA55
:1037000006F3C8699843C861A1F50071D069C8B9CA
:10371000D1F80C029843C1F80C02908880B29689C7
:1037200040EA064601F51070576940F83760108886
:1037300080B2168940EA064601F51070576900EB21
:10374000C7004660D069012819D1D1F80C0218438E
:10375000C1F80C02908880B2168840EA064601F54E
:103760001070576940F83760908980B2168940EA36
:10377000064601F51070576900EBC7004660906976
:1037800028B9D1F804029843C1F8040204E0D1F842
:1037900004021843C1F80402106928B9D1F81402D0
:1037A0009843C1F8140204E0D1F814021843C1F898
:1037B0001402106A012804D1D1F81C021843C1F880
:1037C0001C02D1F8000220F00100C1F80002002024
:1037D000F0BDFFE7606A40F4802060620120F7E7F7
:1037E00000640040704770B5044694F82050012DE5
:1037F00001D0022D7DD151B92068C06800F00300CE
:1038000080B9606A40F400106062012070BD2068D9
:10381000006900F0030028B9606A40F4001060629B
:103820000120F3E7206800F5D87000EB0110006874
:1038300000F004009060906840B9206800F5D870EE
:1038400000EB01100068400D106007E0206800F5F3
:10385000D87000EB01100068C0085060206800F5C7
:10386000D87000EB0110006800F00200D060206802
:1038700000F5D87000EB0110406800F00F00082838
:1038800002D30820106108E0206800F5D87000EB32
:103890000110406800F00F001061206800F5D8703A
:1038A00000EB0110406800F47F40000A906120683E
:1038B00000F5D87000EB01104068000C50612068E2
:1038C00000F5D87000EB011080681870206800F5D2
:1038D000D87000EB0110806800F47F40000A587037
:1038E000206800F5D87000EB0110806800F47F00BC
:1038F00000E03CE0000C9870206800F5D87000EB08
:1039000001108068000ED870206800F5D87000EBB8
:103910000110C0681871206800F5D87000EB011024
:10392000C06800F47F40000A5871206800F5D87024
:1039300000EB0110C06800F47F00000C9871206853
:1039400000F5D87000EB0110C068000ED87131B9D5
:103950002068C06840F020002668F06005E020681C
:10396000006940F020002668306100204EE7606A60
:1039700040F480206062012048E72DE9F05F0446B2
:103980000025206846692068D0F804902068876880
:103990002068D0F80CA02068D0F810B02068D0F8CB
:1039A000188006F00100002855D007F00100C0B1D2
:1039B00001202168886007F0020018B1204600F05D
:1039C00038FD0EE007F0040010B145F4006508E092
:1039D00007F0080010B145F4805502E0204600F0E1
:1039E00027FD07F48070C8B14FF4807021688860AB
:1039F00007F4007018B1204600F01DFD0EE007F43A
:103A0000806010B145F4005508E007F4006010B183
:103A100045F4804502E0204600F00CFD07F48030BC
:103A2000C8B14FF480302168886007F4003018B1C5
:103A3000204600F002FD0EE007F4802010B145F4AE
:103A4000004508E007F4002010B145F4803502E09D
:103A5000204600F0F1FC06F0080038B10AF0100032
:103A600020B145F4007510202168C86006F00400FC
:103A700040B10AF0080028B108202168C86020463B
:103A800000F00CFA06F0020038B12068C06800F0BF
:103A9000030010B1204600F003FA06F0400038B1F0
:103AA0000BF0100020B145F48065102021680861FA
:103AB00006F0200040B10BF0080028B10820216872
:103AC0000861204600F082FC06F0100038B1206842
:103AD000006900F0030010B1204600F078FC06F405
:103AE000003040B109F0100028B110202168486072
:103AF000204600F06DFC06F4803040B109F008006B
:103B000028B1082021684860204600F097FC06F4A0
:103B1000004088B309F0040078B306F4807020B147
:103B200008F0010008B145F0010506F4007020B16D
:103B300008F0020008B145F0020506F4806020B1EB
:103B400008F0040008B145F0040506F40060A0B1D7
:103B500008F0700088B108F07000402817D006DC2B
:103B600010280BD020280CD0302819D10CE0502878
:103B700010D0602814D110E01DE019E045F00805D0
:103B80000FE045F010050CE045F0200509E045F098
:103B9000400506E045F0800503E045F4807500E04F
:103BA00000BF00BF2068806920F070002168886134
:103BB0000420216848602DB1606A28436062204675
:103BC000FFF710FEBDE8F09F70B504460CB9012068
:103BD00070BD94F8200010B9204600F0AFF82068BE
:103BE000006840F001002168086000F073FF05469E
:103BF0000DE000F06FFF401B0A2808D9606A40F40E
:103C000000306062052084F820000120E0E7206891
:103C1000406800F001000028EBD02068006820F028
:103C200002002168086000F055FF05460DE000F035
:103C300051FF401B0A2808D9606A40F400306062D6
:103C4000052084F820000120C2E72068406800F0C9
:103C500002000028EBD1207E012806D120680068F0
:103C600040F080002168086005E02068006820F0CE
:103C7000800021680860607E012806D12068006805
:103C800040F040002168086005E02068006820F0EE
:103C9000400021680860A07E012806D120680068E5
:103CA00040F020002168086005E02068006820F0EE
:103CB000200021680860E07E012806D120680068A5
:103CC00020F010002168086005E02068006840F0DE
:103CD000100021680860207F012806D12068006854
:103CE00040F008002168086005E02068006820F0C6
:103CF000080021680860607F012806D120680068FC
:103D000040F004002168086005E02068006820F0A9
:103D1000040021680860D4E90201084321690843CE
:103D2000616908436168491E08432168C861002031
:103D30006062012084F82000002049E710B586B0B9
:103D40000446142101A8FCF705FC4F49206888426D
:103D500042D14E480068401C4C4908600846006843
:103D600001280FD100BF002000904948006840F0B2
:103D70000070474908600846006800F00070009035
:103D800000BF00BF00BF002000904148103800680D
:103D900040F002003E49103908600846006800F013
:103DA0000200009000BF00BF4FF44070019002205D
:103DB000029001200390032004900920059001A99E
:103DC000344800F087FD00220521142000F04AFF4E
:103DD000142000F033FF54E02F492068884250D16E
:103DE00000BF002000902A48006840F08060284909
:103DF00008600846006800F08060009000BF00BFC7
:103E000022480068401C21490860084600680128D3
:103E10000FD100BF002000901D48006840F00070E6
:103E20001B4908600846006800F00070009000BF61
:103E300000BF00BF0020009015481038006840F017
:103E400002001349103908600846006800F00200BB
:103E5000009000BF00BF602001900220029001206E
:103E60000390032004900920059001A9094800F05F
:103E700031FD00220521402000F0F4FE402000F03A
:103E8000DDFE06B010BD00000064004018000020F8
:103E900040380240000402400068004070470000C3
:103EA00030B587B00446FE49206888427ED1FD4B7C
:103EB0006A4600212046FFF796FC009DB5F5017F7C
:103EC0002CD008DCA5F20120002844D0012809D01C
:103ED00002286CD18EE0B5F5047F69D0B5F5087F76
:103EE000F7D1D2E0F0488088401CEF498880EF4845
:103EF000EC4909688162EE48EA49496841643C300E
:103F000002F016FEEA4890ED100AE84880ED0B0A30
:103F100090ED0B0AE74880ED2B0A1EE1E24800898C
:103F2000401C81B2E0480181E348DE4909688162B2
:103F3000DF48DC4949680163283002F0F9FDDC48BC
:103F400090ED0B0ADC4880ED0B0A90ED0B0AD94886
:103F500080ED400A01E1D448C088401C81B2D248BB
:103F6000C180D648CF490A68C0F821214968C0F805
:103F7000251100F22111FFF7C5FAD04880ED080A9B
:103F800000F221116846FFF7CAFACC4880ED090A11
:103F900090ED080ABCEEC00A10EE101AFCF76FFB99
:103FA000C64890ED030AF8EEC00A02E0D7E0D3E07D
:103FB0007AE09FEDC31A80EE810ADFEDC20A60EE5F
:103FC000200A90F8150100EE100AB8EE400A80EEC3
:103FD000801ABA4880ED0A1AD0ED090A90F8150146
:103FE00000EE100AB8EE400A80EE801AB34880ED69
:103FF0000B1AB2E0AC484089401C81B2AA4841810A
:10400000B148A8490A68C0F821214968C0F82511BB
:1040100000F22111FFF776FAAB4880ED080A00F2B2
:1040200021116846FFF77BFAA74880ED090A90ED59
:10403000080ABCEEC00A10EE101AFCF720FBA248DA
:1040400090ED030AF8EEC00A9FED9D1A80EE810AFA
:10405000DFED9C0A60EE200A90F8150100EE100AD0
:10406000B8EE400A80EE801A974880ED0A1AD0ED2B
:10407000090A90F8150100EE100AB8EE400A80EE29
:10408000801A914880ED0B1A67E087488089401CB0
:1040900081B2854881818D488249097801708C49B7
:1040A000007806F0B4FC58E07F48C089401C81B21B
:1040B0007D48C18110227B498648FCF7CCF98548B0
:1040C000008800EE100AB8EEC00A8348D0ED050A59
:1040D0009FED821A01EE200A80ED010A90ED010A9F
:1040E00080ED050A7B48408800EE100AB8EEC00A51
:1040F0007948D0ED060A9FED791A01EE200A80ED8D
:10410000020A90ED020A80ED060A7248808800EEED
:10411000100AB8EEC00A7048D0ED070A9FED6F1A7A
:1041200001EE200A80ED030A90ED030A80ED070AF4
:104130006848C08800EE100AB8EEC00A6648D0EDA4
:10414000080A9FED661A01EE200A80ED040A90ED40
:10415000040A80ED080A00E000BF00BF00BF60490C
:10416000206888427CD15F4B6A4600212046FFF7D9
:104170003AFB009D40F20221681A8D420CD006DC09
:10418000912D6ED0A5F2012000286BD13DE00128D1
:1041900069D00228F9D11BE04348008A401C81B253
:1041A0004148018250484F490968816240484D4961
:1041B0004968816002F0BCFC3D4890ED010A4A4824
:1041C00080ED0B0A90ED0B0A3A4880ED010AEFE012
:1041D0003548808A401C81B2334881824348414936
:1041E0000968816232483F494968C161143002F070
:1041F0009FFC2F4890ED060A3C4880ED0B0A90ED9D
:104200000B0A2C4880ED160AD2E02748408A401C51
:1042100081B225484182364832490A68C0F82121D6
:104220004968C0F8251100F22111FFF76BF93048F9
:1042300080ED080A00F221116846FFF770F92C485A
:1042400080ED090A90ED080ABCEEC00A10EE101AC3
:10425000FCF715FA264890ED030AF8EEC00A03E0D1
:10426000A8E098E0A3E04BE09FED151A80EE810AEC
:10427000DFED140A60EE200A90F8150100EE100A36
:10428000B8EE400A80EE801A194880ED0A1AD0ED87
:10429000090A90F8150100EE100AB8EE400A29E06C
:1042A00000640040AC00002018610020EC010020F8
:1042B000380B0020880B002044040020F408002064
:1042C000000000460000B443C8070020500D002045
:1042D000510D0020D0600020DC60002000000000B4
:1042E00000680040B4000020C00000201803002037
:1042F0007005002080EE801A2F4880ED0B1A57E0E1
:104300002E48C08A401C81B22C48C1822C482D49BD
:104310000A68C0F821214968C0F8251100F221116E
:10432000FFF7F0F8264880ED080A00F221116846F0
:10433000FFF7F5F8224880ED090A90ED080ABCEE77
:10434000C00A10EE101AFCF79AF91D4890ED030A06
:10435000B8EEC00A1FED261AC0EE010A1FED270AAB
:1043600060EE800A90F8150100EE100AB8EE400ADF
:1043700080EE801A124880ED0A1AD0ED090A90F8F2
:10438000150100EE100AB8EE400A80EE801A0C48C3
:1043900080ED0B1A0CE00948008B401C81B20748E5
:1043A00001832A460849074802F010FB00E000BFDD
:1043B00000BF00BF07B030BD7005002018610020AD
:1043C0009C060020B4000020905F002070477047DA
:1043D000704770B5044694F82000012822D10220CD
:1043E00084F820002068006820F00100216808603F
:1043F00000F070FB05460DE000F06CFB401B0A2846
:1044000008D9606A40F400306062052084F820001A
:10441000012070BD2068406800F001000028EBD149
:104420006062F6E7606A40F4002060620120F0E715
:10443000704770477047704770477047704770B556
:104440000446A56D00F046FB064694F835000228A8
:1044500008D08020606500BF002084F8340000BFD1
:10446000012070BD2068006820F0160021680860F7
:104470002068406920F0800021684861206C08B9FC
:10448000A06C28B12068006820F00800216808604E
:104490002068006820F001002168086010E000F04A
:1044A00019FB801B05280BD920206065032084F8A8
:1044B000350000BF002084F8340000BF0320D0E79F
:1044C0002068006800F001000028E8D194F85C1032
:1044D0003F208840A860012084F8350000BF0020FC
:1044E00084F8340000BF00BFBBE7014691F83500F7
:1044F000022803D08020486501207047052081F8FC
:1045000035000868006820F001000A68106000208B
:10451000F3E70000F8B50446002000908C480068DE
:104520004FF41651B0FBF1F7A56D2E6894F85C10AE
:1045300008208840304098B12068006800F00400EE
:1045400070B12068006820F004002168086094F8C9
:104550005C1008208840A860606D40F00100606534
:1045600094F85C1001208840304068B120684069B0
:1045700000F0800040B194F85C1001208840A860F1
:10458000606D40F00200606594F85C100420884083
:10459000304068B12068006800F0020040B194F833
:1045A0005C1004208840A860606D40F004006065E5
:1045B00094F85C1010208840304078B32068006880
:1045C00000F0080050B394F85C1010208840A860F8
:1045D0002068006800F4802080B12068006800F442
:1045E000002028B9206CC8B12046216C884715E00E
:1045F000A06C98B12046A16C88470FE02068006845
:1046000000F4807028B92068006820F00800216854
:104610000860206C10B12046216C884794F85C102B
:10462000202088403040002865D02068006800F0D5
:10463000100000285FD094F85C1020208840A8600B
:1046400094F83500052828D12068006820F016006D
:10465000216808602068406920F080002168486176
:10466000206C08B9A06C28B12068006820F0080010
:104670002168086094F85C103F208840A860012001
:1046800084F8350000BF002084F8340000BF206D9E
:1046900010B12046216D8847F8BD2068006800F4FD
:1046A000802080B12068006800F4002028B9606C88
:1046B00010B12046616C88471DE0E06BD8B1204600
:1046C000E16B884717E02068006800F4807068B9E3
:1046D0002068006820F0100021680860012084F83C
:1046E000350000BF002084F8340000BFE06B10B13B
:1046F0002046E16B8847606D38B3606D00F00100C3
:10470000F0B1052084F835002068006820F0010031
:104710002168086000BF0098401C0090B84200D992
:1047200005E02068006800F001000028F3D100BF18
:10473000012084F8350000BF002084F8340000BF59
:10474000E06C10B12046E16C884700BFA4E7000090
:10475000280000202DE9F0410446002500F0BAF9B8
:10476000074614B90120BDE8F081606A00B100BFBE
:10477000022084F8350000BF002084F8340000BF18
:104780002068006820F00100216808600AE000F05D
:10479000A1F9C01B052805D920206065032084F8F5
:1047A0003500E0E72068006800F001000028EED145
:1047B0002068056821480540D4E901010843E16803
:1047C00008432169084361690843A1690843E16915
:1047D0000843216A08430543606A042803D1D4E9E9
:1047E0000B0108430543206805602068456925F0F2
:1047F0000705606A0543606A04280DD1A06A054375
:10480000E06A48B12046FCF7C3FE28B1402060654D
:10481000012084F83500A6E7206845612046FCF7B2
:104820009DFE064694F85C103F208840B060002052
:104830006065012084F83500002094E73F8010F087
:104840002DE9F04704460D4616461F464FF0000876
:10485000D4F8589000BF94F83400012802D1022007
:10486000BDE8F087012084F8340000BF94F83500DB
:10487000012825D1022084F83500002060653B46E0
:10488000324629462046FCF7D8FE94F85C103F20BB
:104890008840C9F808002068006840F016002168C8
:1048A0000860206C28B12068006840F0080021688A
:1048B00008602068006840F001002168086006E098
:1048C00000BF002084F8340000BF4FF002084046CB
:1048D000C6E70000F8B502460B460025002400207C
:1048E0000021D6E0012606FA01F51E6806EA050455
:1048F000AC4274D11E7906F00306012E04D01E7955
:1049000006F00306022E13D190684F000326BE4026
:10491000B0434F00DE68BE403043906050680126CF
:104920008E40B0431E79C6F300168E40304350606F
:104930001E7906F00306032E09D0D0684F00032627
:10494000BE40B0434F009E68BE403043D0601E79E9
:1049500006F00306022E13D1CF0802F1200656F806
:1049600027004E07F70E0F26BE40B0434F07FF0E3D
:104970001E69BE403043CF0802F1200646F82700EA
:1049800010684F000326BE40B0431E7906F00306B0
:104990004F00BE40304310605E6806F44036002E83
:1049A00076D000BF002600963C4E366846F480461E
:1049B0003A4F3E603E46366806F48046009600BF99
:1049C00000BF374E8F0856F827008E07370F0F2687
:1049D000BE40B043334EB24202D1002624E057E03D
:1049E000314EB24201D101261EE0304EB24201D119
:1049F000022619E02E4EB24201D1032614E02D4EBC
:104A0000B24201D104260FE02B4EB24201D105265D
:104A10000AE02A4EB24201D1062605E0284EB242F3
:104A200001D1072600E008268F073F0FBE40304324
:104A30001B4E8F0846F82700224E3068A0435E6860
:104A400006F4801606B120431E4E3060361D3068D5
:104A5000A0435E6806F4001606B12043194E361DC9
:104A60003060184E361F3068A0435E6806F400368A
:104A700006B12043134E361F3060361F3068A04306
:104A80005E6806F4803606B120430E4E083E306064
:104A9000491C1029FFF426AFF8BD0000443802403D
:104AA00008380140000002400004024000080240B3
:104AB000000C0240001002400014024000180240A6
:104AC000001C0240083C01400AB1816101E00B0476
:104AD0008361704701480068704700001C00002097
:104AE0000348006803490978084401490860704791
:104AF0001C0000202400002010B50D48006840F480
:104B000000700B4908600846006840F48060086047
:104B10000846006840F480700860032000F0E0F868
:104B20000F2000F007F800F05FF8002010BD000033
:104B3000003C02402DE9F04188B004460027B84609
:104B400000BF002001902348006840F01000214978
:104B500008600846006800F01000019000BF00BF28
:104B600002A903A800F092F9069F1FB900F0B6F958
:104B7000054602E000F0B2F945001748B5FBF0F039
:104B8000A0F1010815481649086040F2E7311448C1
:104B9000C160C0F80480002101618160816100F082
:104BA00043FF064696B90E4800F094FF06466EB9DC
:104BB000362000F043F8102C07D200222146362080
:104BC00000F050F80748046000E00126304608B0C5
:104BD000BDE8F0814038024040420F000010004024
:104BE000441600202000002008B500BF00200090DF
:104BF0001148006840F480400F490860084600688A
:104C000000F48040009000BF00BF00BF0020009073
:104C1000081F006840F08050091F086008460068BF
:104C200000F08050009000BF00BF00220F21901EB6
:104C300000F018F808BD000044380240014608465C
:104C400000280DDB00BF00BF00F01F0301229A40C7
:104C500043099B0003F1E023C3F8002100BF00BF1C
:104C600000BF70472DE9F05F80460D4616460027CD
:104C700006F08EFF074639462A46334601F0070004
:104C8000C0F1070ABAF1040F02D94FF0040A01E09B
:104C9000C0F1070AD14600F1040ABAF1070F02D2A7
:104CA0004FF0000A01E0A0F1030AD4464FF0010AD8
:104CB0000AFA09FAAAF1010A0AEA020A0AFA0CFA3D
:104CC0004FF0010B0BFA0CFBABF1010B0BEA030BE2
:104CD0004AEA0B042146404606F062FFBDE8F09F19
:104CE00000BF00F00702064B19684FF6FF0319409A
:104CF000044B0B4343EA0221014B196000BF70478C
:104D00000CED00E00000FA0570B504460D460CB944
:104D1000012070BD5848006800F00700A84209D281
:104D200055490D700846006800F00700A84201D000
:104D30000120EEE7207800F0020002281DD1207843
:104D400000F00400042805D14C48006840F4E0500D
:104D50004A490860207800F00800082805D1474833
:104D6000006840F46040454908604448006820F00D
:104D7000F000A168084341490860207800F0010074
:104D8000A8B36068012807D13C4808380068C0F320
:104D90004040B8B90120BCE76068022802D06068D2
:104DA000032807D1354808380068C0F3406048B987
:104DB0000120AEE7314808380068C0F3400008B968
:104DC0000120A6E72D48006820F003006168084331
:104DD0002A490860FFF77EFE064609E0FFF77AFEE3
:104DE000801B41F28831884202D9032091E707E015
:104DF0002248006800F00C006168B0EB810FEDD133
:104E00001D48006800F00700A84209D91A490D7032
:104E10000846006800F00700A84201D0012078E7AA
:104E2000207800F00400042807D11448006820F41A
:104E3000E050E168084311490860207800F008005C
:104E4000082808D10D48006820F46040216940EA34
:104E5000C1000A49086000F061F808490968C1F317
:104E60000311074A515CC8400649086006480068BB
:104E7000FFF760FE00204CE7003C0240083802408B
:104E8000C418010828000020200000200F22026022
:104E90000D4A126802F0030242600B4A126802F0E7
:104EA000F0028260084A126802F4E052C260064AC8
:104EB000126802F46042D2080261044A126802F0E9
:104EC00007020A607047000008380240003C0240B8
:104ED00001480068704700002800002000B5FFF777
:104EE000F7FF04490968C1F38221034A515CC840B5
:104EF00000BD000008380240D418010800B5FFF7D3
:104F0000E7FF04490968C1F34231034A515CC840D4
:104F100000BD000008380240D41801082DE9F04710
:104F2000002400250026A1462548006800F00C005A
:104F300020B1042805D008283AD105E0DFF8849094
:104F400039E0DFF8849036E01D48001F006800F06B
:104F50003F041B48001F006800F4800078B11A4825
:104F60001749091F0968C1F38811A0FB01700146A8
:104F7000224600233846FBF7F7F905460EE01148B4
:104F80000F49091F0968C1F38811A0FB0170014690
:104F9000224600233846FBF7E7F905460848001F7C
:104FA0000068C0F30140401C4600B5FBF6F902E082
:104FB000DFF8109000BF00BF4846BDE8F087000052
:104FC000083802400024F40000127A00F8B50446C4
:104FD0000CB90120F8BD207800F00100002874D041
:104FE000F948006800F00C0004280DD0F64800686D
:104FF00000F00C00082813D1F348001F006800F4EB
:105000008000B0F5800F0BD1EF4808380068C0F37E
:105010004040002859D06068002856D10120D9E7C7
:1050200000BF6068B0F5803F08D1E74808380068E5
:1050300040F48030E449083908601EE06068B0F54B
:10504000A02F0DD1E0480838006840F48020DE49E8
:10505000083908600846006840F4803008600CE0B9
:10506000D9480838006820F48030D74908390860EA
:105070000846006820F48020086000BF606890B196
:10508000FFF728FD054606E0FFF724FD401B6428D6
:1050900001D903209EE7CC4808380068C0F340409F
:1050A0000028F1D011E0FFF715FD054606E0FFF7F7
:1050B00011FD401B642801D903208BE7C248083842
:1050C0000068C0F340400028F1D1207800F00200D1
:1050D00002285FD1BC48006800F00C0058B1BA4803
:1050E000006800F00C0008281CD1B748001F0068B9
:1050F00000F48000B0B9B44808380068C0F340003C
:1051000020B1E068012801D0012063E7AE480838EB
:10511000006820F0F800216940EAC100AA49083976
:10512000086037E0E06800B30120A8490860FFF795
:10513000D1FC054606E0FFF7CDFC401B022801D953
:10514000032047E7A04808380068C0F34000002863
:10515000F1D09D480838006820F0F800216940EA45
:10516000C10099490839086014E000209749086097
:10517000FFF7B0FC054606E0FFF7ACFC401B022839
:1051800001D9032026E7904808380068C0F34000A2
:105190000028F1D1207800F0080008282CD160699F
:1051A000A8B101208A490860FFF794FC054606E093
:1051B000FFF790FC401B022801D903200AE7824830
:1051C0006C300068C0F340000028F1D014E00020EB
:1051D0007F490860FFF77EFC054606E0FFF77AFC92
:1051E000401B022801D90320F4E677486C300068A0
:1051F000C0F340000028F1D1207800F0040004281A
:1052000070D1002770483830006800F0805090B9A5
:1052100000BF002000906C483830006840F080509B
:105220006949383108600846006800F080500090F5
:1052300000BF00BF01276748006800F48070B0B964
:105240006448006840F4807062490860FFF742FCDF
:10525000054606E0FFF73EFC401B022801D903206B
:10526000B8E65C48006800F480700028F2D000BF07
:10527000A068012808D154486830006840F0010057
:105280005149683108601DE0A06805280DD14E48DD
:105290006830006840F004004B49683108600846F7
:1052A000006840F0010008600CE047486830006882
:1052B00020F001004449683108600846006820F089
:1052C0000400086000BFA068A8B1FFF703FC054612
:1052D00009E0FFF7FFFB401B41F28831884202D909
:1052E000032077E626E0384868300068C0F34000C5
:1052F0000028EED013E0FFF7EDFB054608E0FFF7CE
:10530000E9FB401B41F28831884201D9032061E664
:105310002D4868300068C0F340000028EFD1012F0D
:1053200007D129483830006820F0805026493831AC
:10533000086000BFA069002845D02348006800F03D
:105340000C0008285DD0A069022845D100201F4923
:105350000866FFF7BFFB054606E0FFF7BBFB401BF7
:10536000022801D9032035E6174808380068C0F341
:1053700040600028F1D1D4E907010843616A40EA9E
:1053800081110122A06AC2EB500041EA00412C20A9
:10539000005D41EA00600C49091F086001200B49CB
:1053A0000866FFF797FB054606E0FFF793FB401BF7
:1053B000022801D903200DE6034808380068C0F32D
:1053C00040600028F1D049E0083802400000474220
:1053D000800E474200700040002021490866FFF718
:1053E00079FB054606E0FFF775FB401B022801D953
:1053F0000320EFE51B480068C0F340600028F2D1AD
:105400002CE0A069012800D1E4E51648001D0668DB
:10541000A069012820D006F48001E06981421BD1F7
:1054200006F03F01206A814216D147F6C070304035
:10543000616AB0EB811F0FD106F440310122A06AEE
:10544000C2EB5000B1EB004F06D106F070612C208A
:10545000005DB1EB006F01D00120BBE50020B9E594
:10546000000047420038024070470000F8B504468B
:105470002068466820688568C5F3801048B905F043
:10548000010030B1C6F3801018B12046216C884766
:10549000F8BDC5F3400030B1C6F3C01018B12046C6
:1054A000616C8847F4E7C5F3401030B9C5F380104C
:1054B00018B9C5F3002000287CD0C6F3401000289E
:1054C0007DD0C5F38010F0B194F8510003280ED0C0
:1054D000606D40F00400606500BF0020009020680F
:1054E000C068009020688068009000BF0BE000BF9B
:1054F000002000902068C0680090206880680090BC
:1055000000BF00BFC4E7C5F3401088B1606D40F034
:105510000100606500BF0020009020688068009056
:105520002068006820F040002168086000BF00BFCC
:10553000C5F3002058B1606D40F00800606500BF01
:105540000020009020688068009000BF00BF606D60
:1055500078B32068406820F0E000216848600120AE
:1055600084F8510006F00200022802D006F0010083
:1055700008B32068406820F0030021684860E06CB0
:1055800050B11048E16C0865E06CFEF7AEFF18B151
:10559000606D40F040006065A06C50B10948A16C9E
:1055A0000865A06CFEF7A1FF18B1606D40F04000E7
:1055B000606503E003E02046FFF756FF68E700BFA1
:1055C00066E700006D9B000810B504460CB9012089
:1055D00010BD606A38B96068B0F5827F00D105E01F
:1055E0000021E16102E00021216161610021A162ED
:1055F00094F8510028B9002084F85000204600F0AB
:1056000047F8022084F851002068006820F040002C
:1056100021680860A08800F48270218901F40441A7
:105620000843A18901F400610843217C01F00201D3
:105630000843217D01F001010843218B01F4007131
:105640000843217F01F0380108432021095D01F062
:1056500080010843218D01F400510843216808604E
:105660000421A06901EA104094F8241001F010010F
:105670000843216848602068C06920F40060216800
:10568000C86100206065012084F8510000209FE778
:1056900010B586B00446142101A8FAF75BFF1F4934
:1056A0002068884238D100BF002000901C48006864
:1056B00040F480401A4908600846006800F48040C1
:1056C000009000BF00BF00BF0020009014481038B9
:1056D000006840F00200124910390860084600686E
:1056E00000F00200009000BF00BF4FF46040019046
:1056F00002200290002003900320049005200590D2
:1057000001A90848FFF7E6F8002205212420FFF749
:10571000A9FA2420FFF792FA06B010BD0038004025
:1057200040380240000402402DE9FE4F04460F4677
:1057300090461D460C9E01200190FFF7CBF9814653
:1057400094F851B060680290AA46BBF1010F0BD0EB
:105750000298B0F5827F04D1A06810B9BBF1040FA4
:1057600002D00220BDE8FE8F1FB1B8F1000F00D0BB
:105770000DB90120F6E700BF94F85000012801D1CF
:105780000220EFE7012084F8500000BF94F8510098
:10579000042802D0052084F8510000206065C4F878
:1057A0003880E587A5872763E586A5862064606441
:1057B0002068006800F04000402805D0206800689C
:1057C00040F0400021680860E068B0F5006F52D1F9
:1057D000606810B1BAF1010F09D1206B008821680F
:1057E000C860206B801C2063E08E401EE0863BE09A
:1057F0002068806800F00200022810D1E08E70B1AD
:10580000019801280BD1206B00882168C860206BAB
:10581000801C2063E08E401EE086002001902068FE
:10582000806800F0010068B1E08F58B12068C0685E
:10583000A16B0880A06B801CA063E08F401EE087F6
:1058400001200190FFF746F9A0EB0900B0420BD30D
:10585000701C48B1012084F8510000BF002084F87A
:10586000500000BF03207DE7E08E0028C0D1E08F0C
:105870000028BDD152E0606810B1BAF1010F09D122
:10588000206B007821680873206B401C2063E08E39
:10589000401EE0863CE02068806800F0020002289C
:1058A00010D1E08E70B1019801280BD1206B0078E7
:1058B00021680873206B401C2063E08E401EE08648
:1058C000002001902068806800F0010068B1E08F3E
:1058D00058B12068C068A16B0870A06B401CA06321
:1058E000E08F401EE08701200190FFF7F3F8A0EB66
:1058F0000900B04201D3701C00B94EB9012084F8F0
:10590000510000BF002084F8500000BF032029E7A9
:10591000E08E0028BFD1E08F0028BCD14A46314636
:10592000204604F02DF940B12020606500BF002022
:1059300084F8500000BF012014E7A06850B900BFF0
:10594000002000902068C068009020688068009067
:1059500000BF00BF012084F8510000BF002084F880
:10596000500000BF606D08B10120FBE60020F9E6A1
:105970007047704730B502460B4600BF92F83C00B6
:10598000012801D1022030BD012082F83C0000BF77
:10599000022082F83D00106844681068816824F095
:1059A00070041868044310684460184D1068A842D9
:1059B0001BD01068B0F1804F17D0154D1068A84269
:1059C00013D0144D1068A8420FD0134D1068A84290
:1059D0000BD0124D1068A84207D0114D1068A84294
:1059E00003D0104D1068A84205D121F080015868FD
:1059F000014310688160012082F83D0000BF002053
:105A000082F83C0000BF00BFBDE70000000001407D
:105A10000004004000080040000C00400004014069
:105A2000004001400018004010B504460CB90120A8
:105A300010BD94F83D0028B9002084F83C002046B1
:105A400000F026F8022084F83D00211D206804F0B3
:105A500033FF012084F8460000BF84F83E00012196
:105A60003F200155402001554120015500BF00BF96
:105A7000012084F84200432001554420015545206F
:105A8000015500BF012084F83D000020D0E7000050
:105A900038B504462068B0F1804F17D100BF002010
:105AA00000900B48006840F0010009490860084672
:105AB000006800F00100009000BF00BF0022052137
:105AC0001C20FFF7CFF81C20FFF7B8F838BD000006
:105AD00040380240014691F83D00012801D00120E4
