:020000040800F2
:1000000028720020290300083F5100083B4B0008DC
:100010003D510008C70600082D89000800000000B7
:10002000000000000000000000000000690200085D
:100030001112000800000000C5020008857B0008BE
:100040004303000843030008430300084303000878
:100050004303000843030008430300084303000868
:1000600043030008430300084303000895100008F9
:1000700043030008A110000843030008AD10000866
:10008000B9100008C5100008430300084303000826
:10009000090700084303000843030008430300085E
:1000A0004303000843030008430300084303000818
:1000B000417E00084303000843030008430300088F
:1000C00043030008430300084303000843030008F8
:1000D0002D750008C1870008218800084303000827
:1000E00043030008430300084303000843030008D8
:1000F000430300084303000843030008D11000082D
:1001000043030008430300084303000843030008B7
:100110009581000819820008358000084303000813
:100120004303000843030008DD10000843030008F0
:100130004303000843030008430300084303000887
:10014000590700084303000843030008430300085D
:100150004303000843030008E910000843030008B4
:100160004303000843030008430300084303000857
:100170004303000843030008430300080000000095
:10018000430300084303000800F002F800F05CF8A5
:100190000AA090E8000C82448344AAF10107DA45E2
:1001A00001D100F051F8AFF2090EBAE80F0013F0D8
:1001B000010F18BFFB1A43F00103184794E5000034
:1001C000B4E500000A444FF0000C10F8013B13F0B6
:1001D000070408BF10F8014B1D1108BF10F8015BA0
:1001E000641E05D010F8016B641E01F8016BF9D193
:1001F00013F0080F1EBF10F8014BAD1C0C1B09D1EA
:100200006D1E58BF01F801CBFAD505E014F8016B5B
:1002100001F8016B6D1EF9D59142D6D370470000ED
:100220000023002400250026103A28BF78C1FBD8FF
:10023000520728BF30C148BF0B6070471FB50DF093
:10024000AAFE1FBD10B510BD00F0E4F91146FFF77E
:10025000F5FF0AF0CDFE00F002FA03B4FFF7F2FF5B
:1002600003BC00F005FA00002C4B19680868B0E8E0
:10027000F04F80F30988BFF36F8F4FF0000080F3D9
:10028000118870470000000008480068006880F38B
:1002900008884FF0000080F3148862B661B6BFF39F
:1002A0004F8FBFF36F8F00DF00BF00BF08ED00E08E
:1002B000DFF80C00016841F470010160704700BF75
:1002C00088ED00E0EFF30980BFF36F8F134B1A68DE
:1002D0001EF0100F08BF20ED108A20E9F04F1060CB
:1002E00009B44FF0500080F31188BFF34F8FBFF374
:1002F0006F8F0CF0C9FA4FF0000080F3118809BC31
:1003000019680868B0E8F04F1EF0100F08BFB0EC95
:10031000108A80F30988BFF36F8F70472C0000208C
:10032000EFF30580704700000948804709480047FF
:10033000FEE7FEE7FEE7FEE7FEE7FEE7FEE7FEE795
:10034000FEE7FEE704480549054A064B70470000F2
:10035000357C000889010008286C002028720020E4
:10036000286E0020286E002053EA020C00F06980FD
:100370002DE9F04B4FF00006002B1FBFB3FA83F5B9
:1003800003FA05F424FA05F65E4012BF1643B2FAEA
:1003900082F502FA05F4C5F120051EBF22FA05FC1C
:1003A00044EA0C04203556EA044C4FEA144418BFC2
:1003B000641C4FF000084FF00009904271EB030CF1
:1003C00039D3002919BFB1FA81F701FA07F6B0FA5B
:1003D00080F700FA07F6C7F120071EBF20FA07FCD6
:1003E00046EA0C062037B6FBF4FCA7EB0507103FE6
:1003F00007F01F0BCBF120060CFA0BFB2CFA06F6CC
:1004000044BFB3460026202FA4BF5E464FF0000B2A
:100410005BEA060C08BF4FF0010B19EB0B09ABFBB5
:10042000027C48EB0608C01B06FB02CC0BFB03CC8E
:1004300071EB0C01C1E70B46024641464846BDE858
:10044000F08B13B54FF000004FF00001AFF30080C8
:10045000BDE81C407047032A40F2308010F0030CC6
:1004600000F0158011F8013BBCF1020F624498BF07
:1004700011F801CB00F8013B38BF11F8013BA2F1A4
:10048000040298BF00F801CB38BF00F8013B11F01F
:10049000030300F02580083AC0F0088051F8043BBF
:1004A000083A51F804CBA0E80810F5E7121D5CBF2C
:1004B00051F8043B40F8043BAFF30080D20724BF5F
:1004C00011F8013B11F801CB48BF11F8012B24BFF3
:1004D00000F8013B00F801CB48BF00F8012B704742
:1004E00010B5203AC0F00B80B1E81850203AA0E8CF
:1004F0001850B1E81850A0E81850BFF4F5AF5FEA03
:10050000027C24BFB1E81850A0E8185044BF18C9B5
:1005100018C0BDE810405FEA827C24BF51F8043B5C
:1005200040F8043B08BF7047D20728BF31F8023BB0
:1005300048BF11F8012B28BF20F8023B48BF00F844
:10054000012B704702F0FF0343EA032242EA024212
:1005500000F037B84FF0000200B5134694469646B7
:10056000203922BFA0E80C50A0E80C50B1F12001C6
:10057000BFF4F7AF090728BFA0E80C5048BF0CC074
:100580005DF804EB890028BF40F8042B08BF7047D2
:1005900048BF20F8022B11F0804F18BF00F8012B44
:1005A000704770477047704710B500F02BF800682F
:1005B00010BD10B5044600F025F8046010BD4FF0E2
:1005C00000020429C0F0128010F0030C3FF4C4AF05
:1005D000CCF1040CBCF1020F18BF00F8012BA8BF2E
:1005E00020F8022BA1EB0C01FFF7B6BF5FEAC17C3C
:1005F00024BF00F8012B00F8012B48BF00F8012BA5
:100600007047000000487047C46B002000487047E6
:10061000C46B00207546FFF7F9FFAE46050069463A
:10062000534620F00700854618B020B5FFF78AFE34
:10063000BDE820404FF000064FF000074FF00008E3
:100640004FF0000B21F00701AC46ACE8C009ACE864
:10065000C009ACE8C009ACE8C0098D46704710B5C8
:100660000446AFF300802046BDE81040FFF7F5BD1B
:1006700001491820ABBEFEE7260002007047027F4A
:1006800062B10268C0E900128A1A8260416901EB16
:10069000D173B2EB630F09DD511A0EE041600160C6
:1006A00000218160C1600121017770474B4203EB5B
:1006B000D373B2EB630F01DA11448160D0E90221F8
:1006C0001144C1607047FEE700B58BB000200121E6
:1006D000CDE9060147F6FE720590CDE900200290B3
:1006E000039004900E20CDE908106946054801F0FA
:1006F000D7FE044802F0ADFB0221024801F056FE8D
:100700000BB000BDCC0F0020014801F0CABF0000B3
:10071000CC0F002000B58BB00E20059000200121E9
:10072000CDE9060147F6FE72CDE900200290039064
:1007300004901C20CDE908106946064801F0B0FE7F
:10074000044802F086FB0221024801F02FFE0BB0A4
:1007500000BD0000F40F0020014801F0A2BF00001E
:10076000F40F00207CB5160A8DF800608DF801208A
:100770001A0ADDE906548DF802202A0A8DF80420B1
:100780008DF80550220A8DF806208DF803308DF87B
:10079000074089B208236A4600F0A4F87CBD000037
:1007A0002DE9F0470C462DED028B814609786078E3
:1007B00004F0C4F944490022C1E900028A60CA6019
:1007C0006078012867D0022865D0042878D10820F5
:1007D0009FED3E8ADFED3E8A086194ED0B0A102002
:1007E000B0EE481AF0EE680A0AF0A8FB074694ED4E
:1007F0000C0A0E20B0EE481AF0EE680A0AF09EFBD2
:10080000804694ED0D0A1020B0EE481AF0EE680A0A
:100810000AF094FB9FED308A064694ED0E0A0A20FA
:100820009FED2C1AF0EE480A0AF088FB054694ED7D
:100830000F0A08209FED291AF0EE480A0AF07EFB05
:1008400027493A0A01230F704A70C8F3052281F83C
:10085000028042EA8512CA70AA080A7148718E7134
:10086000300AC8710A461849484601F0B1FD00280F
:1008700026D002231A4A1449484601F0A9FD00284F
:100880001ED0174A0423BDEC028B4846BDE8F04752
:100890000D4901F09DBD0A61012300220A49484625
:1008A00001F096FD00280BD002230022064948469D
:1008B00001F08EFD002803D004230022E3E7FFE7C8
:1008C000BDEC028BBDE8F087105E002000002042E6
:1008D000000020C200C07F440000000000004C4225
:1008E000330F002070B5104C064600202160A06038
:1008F000C4E90303154601232146304601F068FD93
:1009000000280FD002232A462146304601F060FD20
:10091000002807D02A4621463046BDE8704004230F
:1009200001F056BD70BD0000F85D002010B5044612
:100930002DED088B90ED000AD0ED070A70EE608A6D
:10094000C0ED038A90ED050AD0ED010A90ED04BADE
:1009500040EE208A2BEE008A60EE08AAB0EEE8AAEC
:100960001AEE100A0DF0A6FAB2EE000A41EC190BCD
:100970002BEE000A10EE100A0DF09CFA53EC192B26
:100980000CF0A2FF28EE080A41EC190B10EE100A39
:100990000DF090FA53EC192B0CF0E0FC41EC100B2D
:1009A00009F0D8FF51EC100B0CF0A6FC00EE900AF9
:1009B000B4EEEAAAF1EE10FA0EDDB0EE680A06F027
:1009C00067FE70EEC80AB6EE001A60EE200A94EDDB
:1009D000010A00EE810A07E094ED050AC8EE800ADC
:1009E00094ED010A30EE800AF0EEC00AF4EEC80A77
:1009F000F1EE10FA08DD06F04BFED4ED040AF1EE3C
:100A0000600A20EE200A05E0D4ED040A60EEC00A78
:100A100080EE880AD4ED001A94ED061AD4ED010A8E
:100A200041EE201AC4ED001A41EE000AC4ED010A9D
:100A3000BDEC088B10BD000030EEC00A0849DFEDA8
:100A4000090A10EE100A884202DB30EE600A704795
:100A500010EE100A04498842F9D930EE200A704796
:100A6000000034430000B443000034C32DE9F05FBC
:100A7000DFF8FCA199462DED068B16460C4605467F
:100A8000DDED138A129FDDED11AA9FED7AAA408851
:100A90000AF1140BA0F6320000EE100A1046DDF841
:100AA0004080B8EEC08A0CF0C0FE41EC190BB0EEED
:100AB000C80A10EE100A0DF0FDF953EC192B0CF0DA
:100AC000C7FE02D28AED02AA2AE0B5EEC08AF1EE94
:100AD00010FA0EDD00EE106AB8EE400A78EE400A19
:100AE00000EE109AB8EEC00A20EE800ADFED620A2E
:100AF00012E0B5EEC08AF1EE10FA11D200EE106AE3
:100B0000B8EE400A78EE000A00EE109AB8EEC00A7D
:100B100020EE800ADFED590A80EE201A8AED021AD3
:100B2000A888A0F2827000EE100A4046B8EEC08A93
:100B30000CF07BFE41EC190BB0EEC80A10EE100A67
:100B40000DF0B8F953EC192B0CF082FE02D28BEDAC
:100B500002AA26E0B5EEC08AF1EE10FA0CDD00EE36
:100B6000108AF8EEEA0AB8EE400A38EE400A20EEA3
:100B7000200ADFED430A10E0B5EEC08AF1EE10FA6C
:100B80000FD200EE108AF8EEEA0AB8EE400A38EE0C
:100B9000000A20EE200ADFED3B0A80EE201A8BEDE2
:100BA000021AE888A0F6640000EE100A3846B8EE93
:100BB000C08A0CF03AFE41EC190BB0EEC80A10EEF8
:100BC000100A0DF077F953EC192B0CF041FE04D20A
:100BD0002748283080ED02AA28E0B5EEC08AF1EE61
:100BE00010FA0CDD00EE107AF8EEE80AB8EE400AD2
:100BF00038EE400A20EE200ADFED230A10E0B5EEC1
:100C0000C08AF1EE10FA11D200EE107AF8EEE80A7E
:100C1000B8EE400A38EE000A20EE200ADFED1B0A8B
:100C2000134880EE201A283080ED021A104804F094
:100C300049F80F48143004F045F80D48283004F006
:100C400041F89AED010A0A4884ED7C0A9BED010AFD
:100C50002830B1EE400A84ED7D0A90ED010AB1EE34
:100C6000400A84ED7E0ABDEC068BBDE8F09F0000D3
:100C7000880F00200000000000D002C50080F9C4E9
:100C800000C0EFC4007007C50020F24400F0054525
:100C9000F0B54B4D91F8644A00236A789FED490AFC
:100CA000944214D901EB820404F50064D5ED020AE4
:100CB00094ED711AB4EEE01AF1EE10FA07D8521C56
:100CC0006A70C0F8FC3180ED100A80ED250A91F8B9
:100CD000654AAA78944212D901EB820404F50064B3
:100CE00095ED031AD4ED850AF4EEC10AF1EE10FA7F
:100CF00005D8521CAA70C0F8083280ED4F0A91F84E
:100D0000656AAC78304FA64205D13A78012A02D103
:100D100085ED030A3B706A78964207D197F800C0C8
:100D2000BCF1010F02D185ED020A3B7091F8647AA3
:100D3000974233D1254F3F781FB1012F2ED1A642C4
:100D40002CD1234EAF68B74217DA02EB420201EB17
:100D5000C20252ED060A92ED721A70EE810AC0EDDF
:100D6000070A52ED050A92ED731A70EE810AC0ED82
:100D70001C0A80ED790A80ED7A0AEA68B2420EDA3E
:100D800001EB840101F58061D1EDDF0A91EDF31AE9
:100D900070EE810AC0ED460A80ED7B0AF0BD6B70F3
:100DA000AB70C0F8FC31C0F808320A49C0F8043210
:100DB0000120094A08700721117008490870F0BD28
:100DC000640F002000000000270F0020280F0020E3
:100DD000EC51B83E600F0020080D0020180F0020D5
:100DE000B4EEE00AF1EE10FA02D2B0EE600A7047FB
:100DF000B4EEC10AF1EE10FAF9DDB0EE410A704727
:100E0000DFED0C0A0C480D4A10EE101A814202DB8D
:100E100030EE600A05E010EE101A914201D930EE72
:100E2000200A10EE101A8142EEDA10EE101A9142EA
:100E3000EAD87047DB0FC940DB0F4940DB0F49C0E0
:100E400070B50C462DED048BB0EE408A054600F0DF
:100E500069F8204600F066F89FED2F0A38EE008A08
:100E6000B0EE480A08F052FAD5ED000A60EE208A8A
:100E7000B0EE480A09F0A6FCD5ED010A40EE808AE2
:100E8000B0EE480AC4ED008A08F040FAD5ED010A38
:100E900060EE208AB0EE480A09F094FCD5ED000A15
:100EA00040EEC08AC4ED018A18EE900A0DF002F8F7
:100EB0009FED1A9B41EC100BB0EE491AF0EE691A47
:100EC00008F026FBB0EE408AF0EE608A20680CF055
:100ED000F1FF41EC100BB0EE491AF0EE691A08F080
:100EE00017FBB0EE401AF0EE601A53EC182B51ECE1
:100EF000110B0CF033FA41EC100B09F02BFD51EC07
:100F0000100B0CF0F9F9E06095ED020A84ED020A8D
:100F1000BDEC048B70BD0000DB0FC93F000000007A
:100F20000000004010B504462DED048B007D012823
:100F30001FD000281AD194EC020A01F0DDF984EDEB
:100F4000030A94ED019A2749B0EEC90A10EE100A7F
:100F5000884229DC94ED000AB0EEC00A10EE100AB7
:100F6000884221DC9FED200A84ED040ABDEC048B4D
:100F700010BD94ED040A9FED1D8A20EE080A08F0CA
:100F8000C5F9D4ED030A20EE200A84ED000A94EDA1
:100F9000040A20EE080A09F015FCD4ED030A20EE3D
:100FA000200A84ED010AE1E720680CF083FF41ECA0
:100FB000180B19EE100A0CF07DFF41EC100BB0EE8F
:100FC000481AF0EE681A07F04BFF9FED091B51EC31
:100FD000100B53EC112B0CF07DFA0CF08DF9206105
:100FE000C4E70000ACC527370000000035FA8E3C8E
:100FF000000000A046DF913F70B5D0ED0B0A04461B
:10100000C0ED430A90ED0A1A04F1340680ED421A4D
:1010100090F8200150B304F18805012829D0022856
:1010200023D194ED460A04F1DC0084ED3E0AFFF77B
:101030007DFCD4ED420A94ED370A284604F064FEA4
:1010400094ED2D0ADFED110A9FED111A20EE200A12
:10105000D4ED380A00EE810AD4ED430A304604F09C
:1010600053FE94ED180A84ED0C0A70BD94ED470A06
:10107000F4E794ED460AF0EE410A284604F044FEF7
:10108000D4ED430A94ED2D0AE8E700003333333FF3
:101090009A99993E014801F069BF00009C12002016
:1010A000014801F063BF0000DC110020014801F09D
:1010B0005DBF00003C120020014801F057BF000056
:1010C0001C140020014801F051BF00007C140020D6
:1010D000014801F04BBF0000FC120020014801F064
:1010E00045BF00005C130020014801F03FBF000035
:1010F000BC13002001681823CAB2103AB2FBF3F205
:10110000054B6FF30901032A9B5CC36500D9091DD8
:10111000816508467047000068E2000810B5014686
:1011200000208B698A6A4FF0C07453B1B3F5005F39
:1011300015D072B1012A0CD0022A0AD0032A09D193
:1011400004E01AB1012A06D0022A03D1C96AC901F2
:1011500000D5012010BDC96AA142FAD010BD002AF5
:10116000F7D0012AF2D0022AF3D0032AF3D010BD1F
:1011700030B50468256825F480252560046863601F
:101180008368402B036803D099600068C26030BD5B
:101190009A600068C16030BDF0B506880023042560
:1011A000012418491848194AB61E162E0DD2DFE838
:1011B00006F00B0D0F121416181A1C1E0C0C0C0C3A
:1011C0000C0C0C0C0C2123250C70F0BD0D70F0BD27
:1011D00005200870F0BD0470F0BD0370F0BD022161
:1011E00006E00570F0BD082102E0072100E00621BD
:1011F0000170F0BD1370F0BD142000E01E201070CF
:10120000F0BD0000080D0020CC0C0020020D0020D5
:101210007047000070B57248724C2DED028B82B0A1
:101220000078032828D0D4ED400A94ED3F0A04F159
:10123000FC0004F069FDD4ED160A94ED150A04F1E2
:10124000540004F061FDD4ED2B0A94ED2A0A04F158
:10125000A80004F059FD94EC020A204604F054FD65
:101260006148FFF7C9FE6148FFF7C6FE6048FFF717
:10127000C3FE6048FFF7C0FE94F850019FED5E8A00
:10128000DFED5E8A5E4D012876D094ED350AB0EE32
:10129000481AF0EE680AFFF7A3FD85ED030A94ED06
:1012A0000B0AB0EE481AF0EE680AFFF799FD85EDDB
:1012B000020A94ED4A0AB0EE481AF0EE680AFFF707
:1012C0008FFD85ED010A94ED200AB0EE481AF0EE8C
:1012D000680AFFF785FD85ED000A95ED010A424990
:1012E0004FF40074BDEEC00A10EE100A91ED0C0A26
:1012F00000B2BDEEC00A10EE101A09B2CDE900101E
:1013000095ED030A2146BDEEC00A10EE100A03B2A5
:10131000374890ED0C0ABDEEC00A10EE100A02B27A
:101320003848FFF71FFA95ED000A3049BDEEC00AB4
:1013300010EE100A91ED0C0A00B2BDEEC00A10EEDC
:10134000101A09B2CDE9001095ED020A2146BDEE52
:10135000C00A10EE100A03B2264890ED0C0ABDEE4A
:10136000C00A10EE100A02B22748FFF7FBF902B0DC
:10137000BDEC028B70BDFFE709F0F4FD234E94ED48
:10138000350AB0EE481AD6ED030A30EE200AF0EE28
:10139000680AFFF725FD85ED030A94ED0B0AD6EDEB
:1013A000021AB0EE481AF0EE680A30EE210AFFF792
:1013B00017FD85ED020A94ED4A0AD6ED011AB0EE4A
:1013C000481AF0EE680A30EE210AFFF709FD85EDB4
:1013D000010A94ED200AD6ED000A30EE200A74E7E7
:1013E000080D0020780B0020C4070020980600207C
:1013F000F00800206C05002000007A4600007AC644
:10140000585F0020CC0F0020F40F0020485F002020
:1014100072B6FEE70649896830B1012803D1054854
:10142000814203DA012070470348F9E70020704742
:10143000745F002000004845002032452DE9F04F40
:10144000DFF8FCA3DFF8FC93FF4D9AF800C04FF0E3
:10145000060BB1EE005A9FEDFD3A9FEDFD4ADFED20
:10146000FD3ADFEDFD4AFD48D0ED000AFC4890ED65
:10147000000AFC48D0ED051AFB4890ED051AFB4820
:1014800090ED032ADFEDFA2A72EE622AB0EEE26AEC
:10149000DFEDF82AF84C72EE622AF0EEE25ADFED48
:1014A000F72AF74EF74F5046317801230022D7F83C
:1014B00000E04069BCF1090F79D2DFE80CF0057952
:1014C000A8FDFCFBFAF9F80009B93A60337089F815
:1014D000002289F801228AF810208AF81120F3EE00
:1014E000085AC4ED0E5A514684ED0F5A9FEDE65A44
:1014F00084ED055AC4ED062AC4ED072A9FEDE36A80
:10150000E34C84ED046A9FEDE35A84ED055ADFED68
:10151000E25AC4ED0A5AC4ED0B2AC4ED0C2A85ED3B
:10152000046A85ED055AC5ED0A5AC5ED0B2AC5EDCD
:101530000C2A02EE900AB8EEE25ADFEDD85AF0EE2D
:10154000652A55EE032A82EE845AF0EE652A35EEBE
:10155000234A74EE200A04EE100AC1ED010AB8EE27
:10156000C44A54EE032A82EEA43A73EE632A32EEA2
:10157000800A81ED020ADFEDCA2A71EEE00AC9484D
:10158000C1ED032AF0EEE00A10EE904A84420EDA32
:1015900031EE400AB0EEC00A10EE104A844206DA7C
:1015A00032EE620AB0EEC00A10EE100AFEE3ADE0C1
:1015B00089F8002289F8012232708AF810208AF80E
:1015C0001120B3EE0E0A84ED0E0A84ED0F5A9FED42
:1015D000AE0A84ED050AC4ED062AC4ED072A9FED84
:1015E000B21AAB4880ED041A9FEDB00A80ED050AEF
:1015F000DFEDA90AC0ED0A0AC0ED0B2AC0ED0C2AE6
:1016000085ED041A85ED050AC5ED0A0AB4E009B9AD
:101610003A60337089F8002289F800B089F8012215
:101620008AF8102051468AF811209FEDA12A84EDF6
:101630000E2AB1EE042A84ED0F2A9FED9E2A944BC8
:1016400084ED052AC4ED062AC4ED072AB7EE002A68
:1016500083ED042A9FED985A83ED055ADFED975AE2
:10166000C3ED0A5AC3ED0B2AC3ED0C2A85ED042AFB
:1016700085ED055AC5ED0A5A02EE100AC5ED0B2A92
:10168000C5ED0C2AF8EEC22AB2EE005AB0EE452A99
:1016900002EE832AC2EE042A72EEA32A72EEA00A98
:1016A00002EE900AC1ED010AF8EEE22A05E0FDE340
:1016B000FDE3FDE3A9E22FE22AE0B0EE452A02EEC7
:1016C000832AC2EE242A32EEE32A32EE000A81EDAA
:1016D000020A9FED672A71EEE00A724881ED032A43
:1016E000F0EEE00A10EE903A83420FDA31EE400A53
:1016F000B0EEC00A10EE103A834207DA16EE100A76
:101700006F4B984202DA03207CE23270BDE8F08F22
:101710009AF801C0BCF1000F33D0BCF1010F7CD0AE
:10172000BCF1020F7AD0BCF1030FEFD13270B3EEEF
:10173000080A84ED0E0A84ED0F5A9FED530A84EDDA
:10174000050AC4ED062AC4ED072ADFED500A504809
:10175000C0ED040A9FED4F0A80ED050A9FED4E1A79
:1017600080ED0A1AC0ED0B2AC0ED0C2AC5ED040A63
:1017700085ED050A85ED0A1AC5ED0B2AC5ED0C2A83
:10178000C4E749B93A6033708AF8103089F800220A
:1017900089F800B089F801320120FFF73BFEA8B1BB
:1017A0008AF811309FED470A84ED0E0AB1EE040A63
:1017B00084ED0F0A9FED440A84ED050AC4ED062A64
:1017C0009FED2C0AC4ED072A8AED030A0020FFF7DB
:1017D00021FEA0B32E489FED3D0A9FED3D1A80EDFE
:1017E000040ADFED3C0A80ED051AC0ED0A0AC0EDDF
:1017F0000B2AC0ED0C2A85ED040A85ED051AC5ED0E
:101800000A0AC5ED0B2AC5ED0C2A9AED050A5046C9
:10181000DFED310AF8EEC01A01E0A5E023E1B0EEF9
:10182000601A0E4901EE831AC1EE041A31EEA31AB2
:10183000D1ED001A31EE211A8AED011A4EE060E076
:10184000CC0C0020080D0020C40A00200000B44386
:10185000F2D21041D7A3AA41F2D210C1180B002036
:101860001C0B0020585E0020985E0020345E002093
:10187000FC62093FDC1F1440300A00206F12833ADB
:10188000E60C0020E80C0020005043476666663FE7
:10189000700A0020295C8F3D00803B450000B44267
:1018A000B81E05BE4A0C223F3333733F8FC2753DCD
:1018B0000000C8428096984A0AD7A33D00401C46C3
:1018C000CDCCCC3D0000FA43F90215509A9919404D
:1018D000CDCCCC3D0024F4490000B042B8EEC00AA3
:1018E000FE4940EE030A80EEA40AD1ED000A30EE74
:1018F000630A30EE200A80ED020A9FEDF90A8AEDB4
:10190000030AF848DAED010AF74990ED050A504656
:1019100030EE600AB0EEC00A10EE105A8D42BFF6EB
:101920002FAFF24DD0ED020A95ED050A30EE600AB8
:10193000B0EEC00A10EE105A8D42F0DAEC49D0ED4C
:10194000030AEC4D91ED030A30EE600AB0EEC00AD6
:1019500010EE101AA942E2DAA16BE74CA1427FF423
:101960000FAF8AF80130D0E621B9E449897909B18D
:101970003A60337089F8002289F800B0022189F8B2
:1019800001129FEDDF2AF7EE005A84ED0E2A1FEDBB
:10199000422A84ED0F5A84ED052AC4ED062AC4EDCF
:1019A000072AD84C1FED3C5AC4ED045A84ED055A61
:1019B0001FED472A84ED0A2AC4ED0B2AC4ED0C2A38
:1019C000C5ED045A85ED055A85ED0A2AC5ED0B2AA9
:1019D000C5ED0C2A3478012C28D13C68192C25DD62
:1019E00002EE100A8AF810208AF81130F8EEC22AA6
:1019F0009FEDC55AB0EE452A02EE832AC2EE042AB4
:101A0000B0EE452A72EEA32A72EEA00ACAED010AD0
:101A100000EE900AF8EEE00A00EE832AC2EE240AF5
:101A200070EEE30A30EE800A8AED020A9AED010AAE
:101A3000B64B504631EEC00AB0EEC00A10EE104A66
:101A40009C4288DA90ED020A31EE400AB0EEC00AFC
:101A500010EE104A9C42F4DA037C002B7FF490AE27
:101A60008AF8011051E6E9B3BEF5877F34DD8AF8C4
:101A700010208AF811201FED720A84ED0E0A84ED01
:101A80000F5A9FEDA30A84ED050AC4ED062AC4EDA2
:101A9000072A1FED820A9B4981ED040A5FED830A44
:101AA000C1ED050A1FED7B1A81ED0A1AC1ED0B2A63
:101AB000C1ED0C2A85ED040AC5ED050A85ED0A1A6B
:101AC000C5ED0B2AC5ED0C2A9FED920A8AED030A9B
:101AD00089F8002289F801229AED030A514632EE74
:101AE000400A00E00EE0B0EEC00A10EE103A814C61
:101AF000A342A6DA4B7C002BB0D10A704A70327038
:101B0000401C23E23A60337089F8002289F800B063
:101B1000032389F80132DFE709B93A60337089F8A5
:101B2000002289F800B089F801228AF810208AF88A
:101B30001120F3EE085AC4ED0E5A514684ED0F5AA7
:101B40001FEDAF5A84ED055AC4ED062AC4ED072AED
:101B50001FEDB26A6B4B83ED046A1FEDB25A83ED41
:101B6000055A5FEDB35AC3ED0A5AC3ED0B2AC3ED14
:101B70000C2A85ED046A85ED055AC5ED0A5AC5EDB6
:101B80000B2AC5ED0C2A02EE900AF8EEE25ADFEDC0
:101B9000622AB0EE625A15EE835AC5EE045A35EE4B
:101BA000A34A74EE200A04EE100AC1ED010AB8EE51
:101BB000C44A54EE032A82EEA43A73EE632A32EE4C
:101BC000800A81ED020ADFED552A71EEE00A4F48E6
:101BD000C1ED032AF0EEE00A10EE903A834288DA73
:101BE00031EE400AB0EEC00A10EE103A8342F6DA47
:101BF00032EE620A4A4BB0EEC00A10EE100A98426A
:101C0000EDDA05208AF800007FE59AF802C0D04698
:101C1000BCF1000F09D0BCF1010F5ED0BCF1020F86
:101C20007FF4AEAD00297DD010E141B93A60337048
:101C300089F8002289F800B0042789F8017288F831
:101C4000102088F81130B3EE0E1A84ED0E1A84EDD0
:101C50000F5A1FEDF31A2B4984ED051AC4ED062A1D
:101C6000C4ED072AB7EE005A81ED045A1FEDEE1AB3
:101C700081ED051A5FEDF81AC1ED0A1AC1ED0B2AC4
:101C8000C1ED0C2A85ED045A85ED051AC5ED0A1A39
:101C900001EE100AC5ED0B2AC5ED0C2AF8EEC12A9B
:101CA0009FED1D1AF0EE411A52EE831AC1EE842AFE
:101CB00072EEA31A71EEA00AC8ED010A00EE900AB6
:101CC000F8EEE00A10EE831AC1EE240A70EEE30A81
:101CD00030EE800A88ED020A25E035E01C0B00207A
:101CE00014AE7740585E00204A0CA23F985E002058
:101CF000345E00209A99993E0000FA433C0F002080
:101D000000000C42700A0020000034434A0C223FBD
:101D1000286BEE4D295CEF3F00003E43AE4711407B
:101D2000CDCCCC3D90E01FED120A88ED030A32EED7
:101D3000400AB0EEC00A10EE100AFE498842BFF613
:101D40001FAD8AF80230E0E489B3BEF5FA7F55DDB5
:101D500088F8103088F81130B3EE0E2A84ED0E2A80
:101D600084ED0F5A9FEDF42AF44984ED052AC4ED61
:101D7000062AC4ED072AF7EE005AC1ED045A9FED7A
:101D8000F05A81ED055A9FEDEF2A81ED0A2AC1ED47
:101D90000B2AC1ED0C2AC5ED045A85ED055A85EDD7
:101DA0000A2AC5ED0B2AC5ED0C2A01E062E248E0E3
:101DB00002EE100AF8EEC22A9FEDE35AB0EE452A71
:101DC00012EE832AC2EE042AB0EE452A72EEA32A4E
:101DD00072EEA00AC8ED010A00EE900AF8EEE00AE1
:101DE00010EE832AC2EE240A70EEE30A30EE800A77
:101DF00088ED020A1FED460A88ED030A98ED010AF4
:101E0000D24831EEC00AB0EEC00A10EE101A81427C
:101E100095DA98ED020A31EE400AB0EEC00A10EEF3
:101E2000101A81428BDA98F8100001287FF4A8ACD0
:101E300002208AF80200327089F8002289F8012213
:101E400064E43A603370D9E73A60337088F8103050
:101E500088F81130B3EE0E2A84ED0E2A84ED0F5A65
:101E6000B2EE002A84ED052AB449C4ED062AC4ED79
:101E7000072AB7EE005A81ED045A9FEDB16A81ED51
:101E8000056A1FED612A81ED0A2AC1ED0B2AC1ED19
:101E90000C2A85ED045A85ED056A85ED0A2AC5ED03
:101EA0000B2AC5ED0C2A02EE100A02E070E1CCE02C
:101EB0004FE0F8EEC22A9FEDA65AB0EE452A12EE88
:101EC000832AC2EE042AB0EE452A72EEA32A72EEED
:101ED000A00A02EE900AC8ED010AF8EEE22A12EE1C
:101EE000832AC2EE242A32EEE32A32EE000A88ED7B
:101EF000020A9FED982A88ED032A3968B1F57A7FA6
:101F000003DD88F8102088F8112015EE903AB3F11F
:101F10007C5F11DA71EEE00A4FF08044F0EEE00AE7
:101F200010EE903AA34207DA31EE400AB0EEC00A52
:101F300010EE103AA34203DBB1F5966F7FF720ACA9
:101F400088F8002088F802203270401ECAF8140079
:101F500016E409B93A6033708AF810308AF8113003
:101F6000B3EE082A84ED0E2A84ED0F5AB2EE002A51
:101F700084ED052AC4ED062A5146C4ED072A9FEDDB
:101F8000762A6E4B83ED042A9FED745AB3EE0E6AE7
:101F900083ED055A83ED0A6AC3ED0B2AC3ED0C2AC3
:101FA00085ED042A85ED055A85ED0A6A02EE100AD0
:101FB000C5ED0B2AC5ED0C2AF8EEC22AB2EE045A82
:101FC000B0EE452A02EE832AC2EE042AB0EE452A7C
:101FD00072EEA32A72EEA00A02EE900AC1ED010A87
:101FE000F8EEE22A02EE832AC2EE242A32EEE32A37
:101FF00032EE000A81ED020A9FED562A81ED032A96
:102000003868B0F5617F01DB0A744A7471EEE00A4A
:102010004FF08044F0EEE00A10EE903AA3420CDA62
:1020200031EE400AB0EEC00A10EE103AA34204DAD4
:1020300015EE903AB3F17C5F02DBB0F5966F87DD69
:102040000A708A708AF801208DE439B93A603370D9
:1020500089F8002289F800B089F801228AF8103046
:102060009FED3F5A8AF8113084ED0E5AB1EE045AB2
:1020700084ED0F5A9FED3B5AF0EE005A84ED055A5D
:10208000C4ED062AC4ED072A2C4C9FED376A9FED5C
:10209000375AC4ED045A84ED056A84ED0A5AC4ED3A
:1020A0000B2AC4ED0C2AC5ED045A85ED056A85EDB1
:1020B0000A5AC5ED0B2AC5ED0C2A02EE900ADFED97
:1020C0002C5A5146B8EEE25AF0EE652A45EE032A44
:1020D00082EE845AF0EE652A35EE234A74EE200A29
:1020E00004EE100A1948C1ED010AB8EEC44A71EEB7
:1020F000E00A44EE032AF0EEE00A10EE904A844231
:1021000082EEA43A73EE632A32EE800ADFED192ADA
:1021100081ED020AC1ED032ABFF61AAF31EE400A83
:10212000B0EEC00A10EE104A8442F5DA32EE620ACE
:1021300022E00000CDCCCC3E00504347700A002086
:102140000AD7A33D00803B45000087434A0CA23FCD
:102150000000AF43DC1F14406666663F295C8F3D7C
:102160000000484320BCBE4CCDCCCC3D0024F449FB
:102170000000AA42A2917040B0EEC00A10EE100A10
:102180003F4CA042C8DA0B704A708AF8022069E41A
:1021900009B93A60337089F8002289F800B089F8EB
:1021A00001228AF810209FED372A8AF8112084ED49
:1021B0000E2AB1EE042A84ED0F2A9FED332A5FED3B
:1021C000205A84ED052AC4ED062AC4ED072A2F4CB7
:1021D000B7EE002A9FED2E5A84ED042AC4ED055A6D
:1021E00084ED0A5AC4ED0B2AC4ED0C2A85ED042AAD
:1021F000C5ED055A85ED0A5A02EE100AC5ED0B2A07
:10220000C5ED0C2AF8EEC22AB2EE005A5146B0EEE5
:10221000452A02EE832AC2EE042AB0EE452A72EE67
:10222000A32A72EEA00A02EE900A1B48C1ED010A31
:10223000F8EEE22A71EEE00A02EE832AF0EEE00AFE
:1022400010EE904A8442C2EE242A32EEE32A32EEA5
:10225000000A9FED102A81ED020A81ED032A91DA2E
:1022600031EE400AB0EEC00A10EE104A844289DA1C
:1022700016EE100A094CA04284DA8AF80030C3E452
:102280009A99993E0000C8428096984A700A0020A8
:1022900000401C46FC62093F4A0C223FCDCCCC3D9D
:1022A00070B504462DED048BF0EE429AB0EE619AC3
:1022B00080ED0D0AF0EE418AB0EE608A0D461830CE
:1022C000FEF734FB94ED060A204684ED030A84ED04
:1022D000028AC4ED018A84ED049AC4ED059A08F0DF
:1022E000F5FEBDEC048B04F140012846BDE87040CA
:1022F000112202F0B7BB000010B510EE900A2DEDD0
:10230000068BB0EE40AA0BF0D5FD9FED189B41EC7B
:10231000100BB0EE491AF0EE691A07F0F9F8B0EEBA
:10232000408AF0EE608A1AEE100A0BF0C3FD41EC11
:10233000100BB0EE491AF0EE691A07F0E9F8B0EEAA
:10234000401AF0EE601A53EC182B51EC110B0BF005
:1023500005F841EC100B08F0FDFA51EC100B0AF0F7
:10236000CBFFBDEC068B00EE100A10BD0000000094
:1023700000000040098849BA00EE101AB8EE400A81
:1023800080ED080A704700008878020605D5064AE5
:10239000C97842EA0020084301E0488840BA00EECC
:1023A000100AB8EEC00A70470000FFFF90F8202026
:1023B000012A07D0022A05D0416A41F480214162F6
:1023C00001207047006842690A434261002070475B
:1023D000F0B590F820500468A468012D05D0022DB6
:1023E00003D0416A41F4802157E014F0406F01D1DD
:1023F000E5004FD5C4F301640125A5401D608B683D
:102400004FF4C0759BB1CE6833434E6843EAC603B0
:10241000066805EB0417F3514FF4C273076803EB2A
:1024200004130E69FE50097D012905D009E00E88CC
:10243000CB6843EA4653EBE70168CE5846F4807612
:10244000CE501179D379567941EA036193791B040F
:1024500043EA062319434FF4C676036806EB0416D5
:1024600099511178D37841EA0361937852781B042B
:1024700043EA022211434FF4C473026803EB0413CE
:10248000D150006805EB0411425842F0010242505D
:102490000020F0BD416A41F4001141620120F0BD0D
:1024A00010B590F82020012A07D0022A05D0416AF1
:1024B00041F480214162012010BD3B48D0F8002248
:1024C00042F00102C0F80022D0F8002222F47C522F
:1024D000C0F80022D0F800224B6A42EA0322C0F87A
:1024E00000220A7D02F01F0301229A40D0F81C321C
:1024F0009343C0F81C32CB69B3B9D0F80C32934384
:10250000C0F80C328C894B6864F31F434C6900EBB4
:10251000C404C4F840320C890B6864F31F434C694F
:1025200000EBC404C4F84432CB69012B16D1D0F8B7
:102530000C321343C0F80C320C884B6864F31F4311
:102540004C6900EBC404C4F840320C89CB6864F3D6
:102550001F434C6900EBC404C4F844328B69002B60
:10256000D0F804320ED01343C0F804320B69002BAC
:10257000D0F8143208D01343C0F81432096A012984
:1025800004D008E09343EFE79343F5E7D0F81C123B
:102590001143C0F81C12D0F8001221F00101C0F85C
:1025A0000012002010BD000000640040704770B5AC
:1025B00090F82040012C05D0022C03D0416A41F450
:1025C000802128E0046809B32469A40720D04FF4CF
:1025D000D874056804EB01142D5915F004059560B5
:1025E00005682D591AD0ED08556005682C5904F07E
:1025F0000204D4604FF4DA74056804EB01142E5918
:1026000006F00F06082E0CD308250DE0E468DCE781
:10261000416A41F400114162012070BD6D0D1560E9
:10262000E3E72D5905F00F05156105682D59C5F330
:102630000725956105682C59240C54614FF4DC7210
:10264000046802EB0112A4581C700468A458240A00
:102650005C700468A458240C9C700468A258120E84
:10266000DA704FF4DE72046802EB0112A4581C7198
:102670000468A458240A5C710468A458240C9C7152
:102680000468A258120EDA71006829B1016941F09C
:1026900020010161002070BDC16841F02001C160CE
:1026A000F8E72DE9F05F0546006800244669D0F898
:1026B00004908768D0F80CB0D0F810A0D0F818803B
:1026C000F10748D0F90714D001218160B80703D57C
:1026D000284600F0EAFB0CE0780702D54FF40064CE
:1026E00007E0380702D54FF4805402E0284600F096
:1026F000DBFBF80516D529684FF480708860B805B3
:1027000003D5284600F0D3FB0CE0780502D544F44D
:10271000005407E0380502D544F4804402E028461E
:1027200000F0C4FBF80316D529684FF480308860A8
:10273000B80303D5284600F0BCFB0CE0780302D5B3
:1027400044F4004407E0380302D544F4803402E046
:10275000284600F0ADFB300707D55FEACB6004D513
:102760002968102044F40074C86070074FF008070F
:1027700007D55FEA0B7004D52868C760284600F0CB
:102780009DF9B00706D52868C068800702D02846A2
:1027900000F096F9700607D55FEACA6004D529688B
:1027A000102044F480640861B00607D55FEA0A701F
:1027B00004D528680761284600F048FBF00606D5D6
:1027C00028680069800702D0284600F040FBB0036B
:1027D00008D55FEAC96005D52968102048602846F9
:1027E00000F036FBF00307D55FEA097004D52868CE
:1027F0004760284600F05EFB300446D55FEA49702A
:1028000040D5F00504D55FEAC87001D044F001045A
:10281000B00504D55FEA887001D544F00204700564
:1028200004D55FEA487001D544F00404300529D589
:1028300018F0700F26D008F07000402815D006DC84
:10284000102809D020280AD0302816D10AE05028B4
:102850000ED0602811D10EE044F008040DE044F0E1
:1028600010040AE044F0200407E044F0400404E0CF
:1028700044F0800401E044F480742868816921F008
:1028800070018161296804204860002C05D0686AC5
:10289000204368622846FFF789FEBDE8F09F70B5C7
:1028A000040003D094F8200010B104E0012070BDB2
:1028B000204600F081F82068016841F001010160C4
:1028C00000F0B4FD0546052604E000F0AFFD401B16
:1028D0000A2811D820684068C007F6D0206801682F
:1028E00021F00201016000F0A1FD05460BE000F0BF
:1028F0009DFD401B0A2806D9606A40F400306062E2
:1029000084F82060D2E7206840688007EFD4207EFA
:102910000128206801683DD021F080010160607EBF
:1029200001282068016838D021F040010160A07EB4
:1029300001282068016833D021F020010160E07E89
:102940000128206801682ED041F010010160207F2D
:1029500001282068016829D021F008010160607F0A
:1029600001282068016824D021F004010160D4E925
:1029700002010843D4E90412114308436168491E67
:1029800008432168C86100206062012084F82000AB
:10299000002070BD41F08001C0E741F04001C5E773
:1029A00041F02001CAE721F01001CFE741F0080112
:1029B000D4E741F00401D9E72DE9F04387B004469C
:1029C00014216846FDF7C6FD3849394ADFF8D8803A
:1029D0000868D4F800C00124354B022503260927D6
:1029E000DFF8D0901032401CC44524D10860012883
:1029F00007D1106840F000701060106800F000709F
:102A00000590186840F002001860186802AA00F0EB
:102A1000020005904FF44070CDE9000582E8D00037
:102A20006946484600F014FC00220521142000F0FD
:102A30009BFD142032E0DFF88080C44530D1D2F80D
:102A400000C04CF0806CC2F800C0D2F800C0012871
:102A50000CF0806CCDF814C0086007D1106840F00D
:102A600000701060106800F000700590186840F069
:102A700002001860186802AA00F0020005906020A9
:102A8000CDE9000582E8D0006946484600F0E0FB49
:102A900000220521402000F067FD402000F056FD97
:102AA00007B0BDE8F083000000640040180000207B
:102AB00030380240000402400068004070470000C7
:102AC0002DE9F04781462DED028B88B00068CA4998
:102AD000CA4EDFF82C839FEDCB8ADFEDCB8ACB4D3E
:102AE000CB4C88422CD12B466A4600214846FFF742
:102AF0005EFD0098B0F5017F23D008DCA0F50070E2
:102B0000013831D0012809D00228EBD14CE0B0F5D2
:102B1000047F7DD0B0F5087F12D185E0A088BD4F3D
:102B2000401CA0802868B86268687064B3483C3074
:102B300002F0C8F896ED100A87ED0B0A88ED2B0A13
:102B4000AAE02089B44F401C20812868B8626868D8
:102B50003063AA48283002F0B5F896ED0B0A87EDED
:102B60000B0A88ED400A97E0E088401CE080AB4803
:102B70002968C0F821116968C0F8251100F22111F7
:102B80008A46FFF7F7FBA54F5146684687ED080ACE
:102B9000FFF7FAFB87ED090A97ED080A3846BCEE05
:102BA000C00A10EE101A1EE06089401C60819C482B
:102BB0002968C0F821116968C0F8251100F22111B7
:102BC0008A46FFF7D7FB964F5146684687ED080ABD
:102BD000FFF7DAFB87ED090A97ED080A3846BCEEE5
:102BE000C00A10EE101AFDF74AFD97ED030A97F898
:102BF0001501B8EEC00A20EE080A60EE280A00EEC1
:102C0000100AB8EE400A80EE801A87ED0A1A00E03A
:102C100014E000EE100AD7ED090AB8EE400A80EE83
:102C2000801A87ED0B1A37E0A0897E49401CA081ED
:102C3000287808707C4905F0A0FA2DE0E089102280
:102C4000401CE08171497948FDF705FC7749088807
:102C500000EE100A7648B8EE400A80ED010A80EDD9
:102C6000050A4A8800EE102AB8EE400A80ED020AF2
:102C700080ED060A8A8800EE102AB8EE400A80ED40
:102C8000030A80ED070AC98800EE101AB8EE400A60
:102C900080ED040A80ED080A6649D9F800008842F0
:102CA0004AD15A4B6A46083300214846FFF77FFC59
:102CB000009A40F20221A2F202208A4241D025DC91
:102CC000912A7CD0A2F50072013A35D1608A401C6D
:102CD00060825948A968C0F82111E968C0F8251137
:102CE00000F221110D46FFF745FB534C294668467B
:102CF00084ED080AFFF748FB84ED090A94ED080A01
:102D00002046BCEEC00A10EE101A4BE001282AD073
:102D1000022811D1A08A401CA082484CA868A06259
:102D2000E868F0613548143001F0CCFF96ED060AF2
:102D300084ED0B0A88ED160A08B0BDEC028BBDE8E5
:102D4000F087208A401C20823D4CA868A062E86879
:102D5000B0602A4801F0B6FF96ED010A84ED0B0A37
:102D600088ED010AE8E7E08A401CE0823548A9685E
:102D7000C0F82111E968C0F8251100F221110D46B3
:102D8000FFF7F8FA2F4C2946684684ED080AFFF74A
:102D9000FBFA84ED090A94ED080A2046BCEEC00A4D
:102DA00010EE101AFDF76BFC94ED030A94F8150170
:102DB000B8EEC00A20EE080A60EE280A00E012E031
:102DC00000EE100AB8EE400A80EE801A00EE100AFB
:102DD000B8EE400A84ED0A1AD4ED090A80EE801A92
:102DE00084ED0B1AA8E7208B1749401C2083074865
:102DF000083001F0FBFE9FE700640040280B002034
:102E0000780B0020000000390000B443AC00002023
:102E1000B05F0020E801002040040020F0080020FE
:102E2000C40700203B0F00203C0F0020685F0020FB
:102E3000745F0020006800406C050020140300202F
:102E4000BC00002098060020345E002070477047C8
:102E5000704770B5044690F82000012804D0606ADD
:102E600040F40020606217E0022084F8200020680F
:102E7000016821F00101016000F0D8FA05460DE07B
:102E800000F0D4FA401B0A2808D9606A40F40030E8
:102E90006062052084F82000012070BD2068406831
:102EA000C007EDD1606270BD7047704770477047D2
:102EB0007047704770472DE9F0410446876D00F078
:102EC000B5FA054694F835000026022806D0802081
:102ED000606584F834600120BDE8F08120680168F5
:102EE00021F0160101602068416921F080014161F3
:102EF000206C08B9A06C20B12068016821F008019D
:102F000001602068016821F0010101600CE000F01F
:102F10008DFA401B052807D920206065032084F81E
:102F2000350084F83460D7E720680068C007EED128
:102F300094F85C103F208840B860012084F8350088
:102F400084F834600020C7E790F83510022903D0D8
:102F50008021416501207047052180F83510006807
:102F6000016821F001010160002070472DE9F8435C
:102F700004464FF00009CDF8009063484FF4165115
:102F8000A56D0068B0FBF1F72E6894F85C2008216D
:102F900001FA02F030420FD02068026852070BD5C8
:102FA000026822F00402026094F85C008140A9608B
:102FB000606D40F00100606594F85C104FF001080E
:102FC00008FA01F0304208D021684969090604D5A1
:102FD000A860606D40F00200606594F85C10042009
:102FE0008840304208D021680968890704D5A86064
:102FF000606D40F00400606594F85C10102088401B
:10300000304218D021680968090714D5A8602068E3
:103010000168490304D50068000308D5A16C07E0E6
:103020000168C90503D4016821F008010160216C21
:1030300009B12046884794F85C102020884030422F
:1030400031D021680968C9062DD5A86094F83500EB
:1030500005282068016806D0490347D500680003A9
:103060001DD4616C1CE021F01601016020684169EB
:1030700021F080014161206C08B9A06C20B120686A
:10308000016821F00801016094F85C103F2088403D
:10309000A86084F8358084F83490216D1FE0E16BDE
:1030A00009B120468847606D00282BD0606DC007AD
:1030B00014D0052084F835002068016821F0010152
:1030C00001600098401C0090B84203D82068006856
:1030D000C007F6D184F8358084F83490E16C00297B
:1030E00010D001B02046BDE8F04308470168C9058B
:1030F000D5D4016821F01001016084F8358084F88E
:103100003490CCE7BDE8F883280000202DE9F04199
:10311000044600F08BF905465CB1022084F83500C6
:10312000002684F834602068016821F00101016004
:103130000DE00120BDE8F08100F078F9401B052882
:1031400005D920206065032084F83500F2E7206867
:103150000068C007F0D121680A6820480240D4E91D
:1031600001031843D4E903352B431843636918431B
:10317000A3691843E3691843236A18431043626A3A
:10318000042A03D1D4E90B231A43104308602068B2
:103190004069656A20F0070128460D43012704288D
:1031A0000CD1A06A0543E06A40B12046FDF7B6FFA6
:1031B00020B14020606584F83570BAE72068456129
:1031C0002046FDF797FF94F85C203F2191408160F5
:1031D000666584F835700020ACE700003F8010F091
:1031E0002DE9F0410446866D90F834000025012851
:1031F0000DD0012084F8340094F835700020012FA0
:1032000007D084F8340002252846BDE8F08102206A
:10321000FBE7022784F8357060652046FDF7A8FFBC
:1032200094F85C103F208840B0602068016841F04D
:1032300016010160206C20B12068016841F008018E
:1032400001602068016841F001010160DCE70000D5
:103250002DE9F84FDFF89C910022A9F1040B032718
:103260004FF00F0C09F1040AABF1040E01250B68B5
:1032700095402B40AB426ED10C7904F00304012C35
:1032800001D0022C15D18668540007FA04F826EA0A
:103290000806D1F80C8008FA04F848EA0608C0F8D5
:1032A00008804468AC430D79C5F30015954025436B
:1032B00045600C79E443A40708D0C568540007FAB8
:1032C00004F6B5438E68A6402E43C6600C7904F020
:1032D0000304022C11D1D40800EB8406356A54078C
:1032E000E40E0CFA04F825EA0805D1F8108008FA73
:1032F00004F848EA0508C6F820800568540007FA73
:1033000004F6B5430E7906F00306A6402E43066088
:103310004C6814F4403F66D0374C256845F480452E
:103320002560246822F0030504F480440094334CA3
:1033300005EB0408D8F808589407260F0CFA06F491
:10334000A5432F4CA04201D1002424E02D4CA042E3
:1033500002D101241FE046E02B4CA04201D10224FF
:1033600019E02A4CA04201D1032414E0284CA042C9
:1033700001D104240FE0274CA04201D105240AE02A
:10338000254CA04201D1062405E0244CA04201D1E5
:10339000072400E00824B4402C43C8F80848D9F8B2
:1033A00000404D464E689C43F60200D51C432C60FD
:1033B000DAF8004055464E689C43B60200D51C43DF
:1033C0002C60DBF800405D464E689C43B60300D598
:1033D0001C432C60DEF8004075464E689C43F603A3
:1033E00000D51C432C60521C102AFFF43FAFBDE8EF
:1033F000F88F0000083C0140443802400030014092
:10340000000002400004024000080240000C02409C
:10341000001002400014024000180240001C02404C
:103420000AB1816170470904FBE700000148806828
:10343000704700001C000020024881680278114497
:10344000816070471C0000200B4810B5016841F4F2
:1034500000710160016841F480610160016841F41C
:1034600080710160032000F09FF80F2000F006F843
:1034700000F050F8002010BD003C024030B5054679
:103480001F4887B00024016841F010010160006806
:1034900006A900F010000590684600F031F9039885
:1034A000A8B100F04DF940001649174AB0FBF1F100
:1034B0001648491E026040F2E732C0E90324C0E921
:1034C0000114846100F092FD040003D015E000F0C7
:1034D00037F9E9E70D4800F0D3FD04000DD136209F
:1034E00000F034F8102D07D200222946362000F0D3
:1034F0003BF80748056000E0012407B0204630BDD6
:103500004038024040420F0000100040DC14002010
:10351000200000200C4882B0016841F48041016025
:10352000006800F4804000900748001F016841F0E7
:10353000805101600068002200F0805000900F214F
:10354000901E02B000F010B844380240002809DB99
:1035500000F01F02012191404009800000F1E020AD
:10356000C0F8001170470000F0B40E4B1B68C3F3A5
:103570000223C3F10704042C00D904241D1D072DC8
:1035800001D2002300E0DB1E012606FA04F56D1EC1
:103590000D409D409E40761E164045EA0601F0BC57
:1035A00005F0E1BA0CED00E0064A00F007011068F2
:1035B0004FF6FF03184040EA01200349084310601A
:1035C000704700000CED00E00000FA052DE9F0471F
:1035D0000D46040065D0DFF81491D9F80000EFB271
:1035E00000F00700A84207D289F80070D9F800005F
:1035F00000F00700A84254D120683D4E810712D543
:10360000400703D5306840F4E05030602078000770
:1036100003D5306840F4604030603068A16820F025
:10362000F000084330602078C0072DD03049606832
:103630000839012812D0022813D0032811D00968B4
:10364000890700292DDA316821F003010143316037
:10365000FFF7ECFE804641F2883A0EE009688903E4
:10366000EFE709688901ECE7FFF7E0FEA0EB08014E
:10367000514502D90320BDE8F0873068616800F049
:103680000C00B0EB810FEFD1D9F80010484601F0E3
:103690000701A94207D90770006800F00700A84297
:1036A00001D00120E7E72078400705D53068E168C0
:1036B00020F4E050084330602078000706D53068D9
:1036C000216920F4604040EAC100306000F058F801
:1036D0003168084AC1F30311515CC84006490860CB
:1036E00006480068FFF7CAFE0020C4E7003C02401D
:1036F0000838024070E20008280000202000002066
:103700000F2202600C4A136803F00303436013683E
:1037100003F0F0038360136803F4E053C36012689E
:103720004FF4E05303EAD20202610448006800F05B
:10373000070008607047000008380240003C024063
:103740000448054900680968044AC1F38221515CB4
:10375000C8407047280000200838024080E2000876
:103760000448054900680968044AC1F34231515CC4
:10377000C8407047280000200838024080E2000856
:10378000154810B5006810F00C01144813D0431010
:1037900004290FD008290ED10F4C241F216801F0F5
:1037A0003F022168490207D52068C0F38810A0FBBA
:1037B000030106E0184610BD2168C1F38811A1FB82
:1037C00000010023FCF7D0FD2168C1F30141491C31
:1037D0004900B0FBF1F010BD083802400024F400AD
:1037E0002DE9F84F040075D02078DFF838A3C00722
:1037F000AAF1040548D00AF104000168C1F381016F
:10380000012908D00068C0F3810002280AD1DAF843
:103810000000400206D52868800335D5606800287E
:10382000E1D031E06068B0F5803F10D0B0F5A02F56
:10383000286810D020F480302860286820F4802088
:1038400028606068A0B1FFF7F1FD06460CE028682B
:1038500040F48030F4E740F480202860F7E7FFF779
:10386000E5FD801B642871D828688003F7D50BE03C
:10387000FFF7DCFD064604E0FFF7D8FD801B642857
:10388000F1D828688003F7D42078DFF89C9280076D
:103890004FF0000B3DD5A348001D016811F00C0F3F
:1038A00008D00068C0F3810002280AD1DAF80000CD
:1038B000400206D42868800715D5E068012809D1A0
:1038C00011E0E068B8B10120C9F80000FFF7AEFDD3
:1038D000064605E022E1FFF7A9FD801B0228C2D8B9
:1038E00028688007F7D52868216920F0F80040EAA9
:1038F000C10028600DE0C9F800B0FFF797FD06464B
:1039000004E0FFF793FD801B02281FD8286880077A
:10391000F7D42078000722D5824F84486169703738
:1039200071B101210160FFF781FD064604E0FFF758
:103930007DFD801B022809D838688007F7D50EE086
:10394000C0F800B0FFF772FD064605E082E0FFF721
:103950006DFD801B02287DD838688007F7D4207859
:10396000400765D56F484FF000083C300068C00044
:103970000BD46C483C30016841F080510160006814
:103980004FF0010800F080500090694F3868C00582
:103990000FD4386840F480703860FFF747FD064662
:1039A00004E0FFF743FD801B022853D83868C005A8
:1039B000F7D55C4FA0686C3701280FD00528386810
:1039C00010D020F001003860386820F00400386022
:1039D000A068B0B1FFF72AFD06460EE0386840F057
:1039E0000100F4E740F004003860F7E7FFF71EFD40
:1039F000811B41F28830814263D838688007F5D551
:103A00000DE0FFF713FD064606E0FFF70FFD811BF3
:103A100041F28830814254D838688007F5D4B8F133
:103A2000000F05D03F483C30016821F08051016013
:103A3000A069B8B33B49091D0968C1F38101022996
:103A400046D00228584606D0C9F86000FFF7EEFCC1
:103A5000044639E035E04F46C9F86000FFF7E6FC60
:103A6000064604E0FFF7E2FC801B022829D82868FC
:103A70008001F7D4D4E907010843A16A2D4A490817
:103A800002EB0141626A41EA8211084394F82C106A
:103A900040EA0161CAF8001001203866FFF7C6FC51
:103AA000044605E03CE0FFF7C1FC001B022808D8F3
:103AB00028688001F7D533E0FFF7B8FC001B022827
:103AC00002D90320BDE8F88F28688001F4D427E0EC
:103AD0000128F7D0DAF80000E26900F48001914291
:103AE0001CD1226A00F03F01914217D147F6C07104
:103AF000626A0140B1EB821F10D1A26A4FF0FF331E
:103B000000F4403103EB5202B1EB024F06D194F8BE
:103B10002C1000F07060B0EB016F01D00120D1E7F4
:103B20000020CFE70438024000004742800E4742A1
:103B3000007000400000FFFF7047000038B50168CA
:103B400004464A688868C043430606D5C30704D1C3
:103B5000D3435B0601D4216C05E0830708D4D3432B
:103B60001B0605D4616C01B02046BDE83040084713
:103B7000830603D5430601D5C30551D4D3439B0621
:103B80004ED443060AD494F85130032B49D0636DC8
:103B900043F004036365CB688B680093830609D404
:103BA000636D43F0010363658B6800930B6823F03A
:103BB00040030B60C00506D4606D40F008006065EE
:103BC000206880680090606D002829D020684168D6
:103BD00021F0E0014160012084F85100900701D4F8
:103BE000D00722D02068416821F003014160114DC7
:103BF000E06C40B10565E06CFFF7A6F918B1606DA7
:103C000040F040006065A06C002809D00565A06CFC
:103C1000FFF79AF9002803D0606D40F0400060651E
:103C200038BDC8688868009038BD2046FFF784FF1B
:103C300038BD00003975000870B5040009D0606A0D
:103C4000002540B125616561A56294F8510040B13D
:103C50000CE0012070BD6068B0F5827FF4D0E561B2
:103C6000F2E784F85050204600F044F8022084F82F
:103C700051002068016821F040010160A08821897D
:103C800000F4827001F404410843A18901F4006149
:103C90000843217C01F002010843217D01F001016C
:103CA0000843218B01F400710843217F01F03801A2
:103CB000084394F8201001F080010843218D01F49D
:103CC0000051084321680860A069042101EA1040FE
:103CD00094F8241001F0100108432168486020681E
:103CE000C16921F40061C1616565012084F851005A
:103CF000002070BD10B586B0044614216846FCF75C
:103D000029FC18492068884229D1174800210268F7
:103D100042F480420260006800F48040059012483E
:103D20001038026842F002020260006800F00200EF
:103D300005904FF4604000900220CDE9010103207E
:103D400003900520049069460848FFF781FA002295
:103D500005212420FFF708FC2420FFF7F7FB06B01D
:103D600010BD00000038004040380240000402400E
:103D70002DE9FF4F81B01F469346044601250E9E54
:103D8000FFF754FB804694F851006168012806D083
:103D9000B1F5827F3CD1A168C9BB042838D1029813
:103DA000002870D0BBF1000FFBD0002FF9D094F8A1
:103DB000500001282CD04FF0010A84F850A094F84C
:103DC0005100042802D0052084F851004FF000096A
:103DD000C4F85490C4F838B0E787A78702992163E4
:103DE000E786A786C4F84090C4F84490206801682C
:103DF000490603D4016841F040010160E068B0F574
:103E0000006F606808D0E8B3012F47D07DE0FFE77E
:103E1000022005B0BDE8F08F08B1012F37D1206B2B
:103E200021680088C860206B801C2063E08E401EE3
:103E3000E0862CE02068816889070DD5E18E59B1B4
:103E4000012D09D1216B0988C160206B801C206382
:103E5000E08E401EE086002520688168C9070BD0EF
:103E6000E18F49B1C068A16B0880A06B801CA06382
:103E7000E08F401EE0870125FFF7D8FAA0EB08008D
:103E8000B04201E00AE064E001D3701C4ED1E08E44
:103E90000028CFD1E08F0028CCD13CE0206B2168F6
:103EA00000780873206B401C2063E08E401EE08683
:103EB0002BE02068816889070DD5E18E59B1012D6D
:103EC00009D1216B09780173206B401C2063E08EBF
:103ED000401EE086002520688168C9070BD0E18F6D
:103EE00049B1C068A16B0870A06B401CA063E08F53
:103EF000401EE0870125FFF799FAA0EB0800B042C9
:103F000002D3701C01D011E086B1E08E0028D0D120
:103F1000E08F0028CDD142463146204603F014FB05
:103F200050B12020606584F8509012E084F851A0D0
:103F300084F8509003206CE7A06818B92068C16825
:103F40008068009084F851A084F85090606D00283B
:103F5000F1D001205DE770477047000070B590F820
:103F60003C20012A32D0012580F83C50022280F802
:103F70003D2002685368946823F070060B68334351
:103F80005360134B02689A4214D0B2F1804F11D0A3
:103F9000104B9A420ED0104B9A420BD00F4B9A42C4
:103FA00008D00F4B9A4205D00E4B9A4202D00E4BCE
:103FB0009A4204D1496824F080031943916080F843
:103FC0003D50002180F83C10084670BD022070BDB5
:103FD000000001400004004000080040000C0040C8
:103FE00000040140004001400018004010B50400EA
:103FF00003D094F83D0010B107E0012010BD00206F
:1040000084F83C00204600F01FF8022084F83D00B0
:10401000211D206804F014F8012084F8460084F87B
:104020003E0084F83F0084F8400084F8410084F8A2
:10403000420084F8430084F8440084F8450084F882
:104040003D00002010BD000008B50068B0F1804FB1
:1040500012D10A48016841F00101016000680022A4
:1040600000F00100009005211C20FFF77DFABDE85B
:1040700008401C20FFF76ABA08BD00004038024023
:1040800090F83D10012901D001207047022180F8ED
:104090003D100168CA6842F00102CA600068114917
:1040A000884214D0B0F1804F11D00F4988420ED011
:1040B0000E4988420BD00E49884208D00D498842EB
:1040C00005D00D49884202D00C49884204D181684C
:1040D00001F00701062903D0016841F001010160E8
:1040E000002070470000014000040040000800402C
:1040F000000C004000040140004001400018004056
:1041000070B5044690F83C000025012817D0012620
:1041100084F83C60022084F83D002068826822F028
:10412000770222F47F4282600868502838D00DDC84
:1041300020284FD005DC90B3102811D14AE002208E
:1041400070BD302846D040280AD13BE060282FD0EF
:1041500070280DD0B0F5805F03D0B0F5005F12D0AD
:10416000012584F83D60002084F83C00284670BD9D
:10417000CB68D1E90121206803F0CAFF206881687B
:1041800041F0770109E0CB68D1E90121206803F013
:10419000BFFF2068816841F480418160E1E719E058
:1041A000CA684968206803F0C5FF5021206806E00E
:1041B000CA684968206803F0CEFF6021206803F0D8
:1041C000B1FFCEE7CA684968206803F0B3FF402119
:1041D0002068F4E7226801461046F0E770472DE9B1
:1041E000F04104460068C66805694FF00007A9075A
:1041F00013D5B10711D5F91E016101202077206880
:1042000080698007204602D0FFF7E8FF04E000F055
:104210007EF8204600F07CF82777680716D57007EF
:1042200014D521686FF0040008610220207720680F
:10423000806910F4407F204602D0FFF7CFFF04E0F2
:1042400000F065F8204600F063F82777280715D5B9
:10425000300713D521686FF008000861042020772B
:104260002068C0698007204602D0FFF7B7FF04E04E
:1042700000F04DF8204600F04BF82777E80616D5F9
:10428000F00614D521686FF010000861082020772F
:104290002068C06910F4407F204602D0FFF79EFFDF
:1042A00004E000F034F8204600F032F82777E80701
:1042B00008D0F00706D021686FF0010008612046A1
:1042C00000F028F8280608D5300606D521686FF0DA
:1042D000800008612046FFF73EFE680608D570069C
:1042E00006D521686FF040000861204600F01CF8F8
:1042F000A8060AD5B00608D521686FF0200008612D
:104300002046BDE8F041FFF727BEBDE8F0817047C9
:104310007047000000680349884201D1FFF78CB85C
:1043200070470000001000407047704708B590F8D3
:104330004110212909D10168143151E8002F42F0C0
:10434000800241E80023002BF5D190F84210222989
:1043500023D101680A6849680091016949B101687F
:104360000C3151E8002F42F4807241E80023002B09
:10437000F5D10168143151E8002F42F0010241E803
:104380000023002BF5D10168143151E8002F42F0D1
:10439000400241E80023002BF5D1002008BD704702
:1043A000F8B5016804460868CA684B6910F00F0F39
:1043B0004FF0000559D003F0010602F4907737431F
:1043C00065D0C10705D0D10503D5616C41F001016D
:1043D0006164410705D5D90703D0616C41F0020142
:1043E0006164810705D5D90703D0616C41F00401F0
:1043F0006164010707D502F02001314303D0616CED
:1044000041F008016164616C00293AD0800604D54E
:10441000900602D5204604F00CF820684069616CD3
:10442000C0F38010090700D460B3204603F0CCFF2E
:1044300020684069400621D52068143050E8001FEC
:1044400021F0400140E80012002AF5D1E06BA8B14C
:1044500072490165E06BFEF777FD002811D0E06B33
:10446000016D01B0BDE8F040084783060FD5930603
:104470000DD52046BDE8F84003F0DBBF2046FFF72E
:104480008EFFF8BD2046FFF78AFF6564F8BD266BF6
:104490002023012E7ED1C6067CD5D6067AD50868A3
:1044A0004868009048694FF0020640064DD5E26B1F
:1044B000106840684FF480770004000C3AD0A18D5A
:1044C000814237D9E085D069B8422DD020680C30C0
:1044D00050E8001F21F4807140E80012002AF5D155
:1044E0002068143050E8001F21F0010140E800125C
:1044F000002AF5D12068143050E8001F21F0400157
:1045000040E80012002AF5D184F842302563206883
:104510000C3050E8001F21F0100140E80012002A82
:10452000F5D1E06BFEF7C7FC6663A08DE18D401A04
:1045300081B206E0A18D8142A8D1D069B842A5D14F
:1045400066632046FFF7F1FEF8BDA08DE18D401AAD
:1045500081B2E08D0028F7D00029F5D020680C301A
:1045600050E8002F22F4907240E80027002FF5D188
:104570002068143050E8002F22F0010240E80027A4
:10458000002FF5D184F84230256320680C3050E8C4
:10459000002F00E006E022F0100240E80023002B8C
:1045A000F3D1CDE705062BD5150629D594F84100A2
:1045B0002128C9D1A068B0F5805F01D12069B0B1D0
:1045C000206A411C2162216800784860E08C401E0E
:1045D0000004000CE084B7D12068C16821F080019C
:1045E000C1602068C16841F04001C160F8BD206A27
:1045F0000088C0F308004860206A801C2062E5E75C
:104600004006F3D55006F1D5CA68204622F0400294
:10461000CA6084F8413000F069FAF8BD8182000870
:1046200070B5040004D094F84100002510B106E0F4
:10463000012070BD84F84050204600F023F824206B
:1046400084F841002068C16821F40051C16020460F
:1046500003F050FF2068016921F490410161206856
:10466000416921F02A0141612068C16841F400518B
:10467000C1606564202084F8410084F842006563CD
:10468000002070BD2DE9F04F87B004461421684624
:10469000FBF760FFDF48DFF8788310380221D4F899
:1046A00000C0DFF870A30122032300258F06061542
:1046B0004FF0080E4FF04009C4455BD1DAF8008096
:1046C000AB4648F40028CAF80080DAF800C00CF4C1
:1046D000002CCDF814C0D0F800C04CF0040CC0F889
:1046E00000C0006800F00400059098028DE80F40BB
:1046F0006946C948FEF7ACFDDFF82483C749404648
:10470000C8F80010C0E90175C0E90356C8F8145094
:10471000C8F81850C8F81C50C8F82050C8F82450E1
:10472000FEF7F4FC08B1FCF773FEBD4DBB48C4F8BE
:104730003C8060353030C8F8384085E88102C5E9F2
:1047400003B6C5F814B0C5F818B0C5F81CB0C5F864
:1047500020B02846C5F824B0FEF7D8FC08B1FCF715
:1047600057FEA563002205213420AC63FEF7FCFE52
:1047700034207CE0DFF8AC82C4457ED1DAF80080DA
:1047800048F48018CAF80080DAF800C00CF4801CE5
:10479000CDF814C0D0F800C04CF0040CC0F800C034
:1047A000D0F800C00CF0040CCDF814C0D0F800C054
:1047B0004CF0080CC0F800C00068934600F00800F8
:1047C00005904FF4805000900220CDE90102CDE920
:1047D000033E9A46F04669468F48FEF739FD0420AD
:1047E00000900220CDE9010BCDE903A869468E486F
:1047F000FEF72EFDDFF82882884908F1C00830391D
:104800004046C8F80010C0E90175C0E90356C8F871
:104810001450C8F81850C8F81C50C8F82050BA46B0
:10482000C8F82450FEF772FC08B1FCF7F1FD7F4F89
:10483000C4F83C80C8F83840C7F80890C7E9035668
:104840007D61BD617548FD613D6278307D62C7E97B
:10485000000A3846FEF75AFC08B1FCF7D9FDA763F9
:10486000002205213520BC63FEF77EFE3520FEF7D1
:104870006DFE07B0BDE8F08FFFE7DFF8B4814FF0C1
:10488000070EC44562D1DFF88CC1AA460CF1040CB6
:10489000DCF8008048F01008CCF80080DCF800C09C
:1048A0000CF0100CCDF814C0D0F800C04CF0010C86
:1048B000C0F800C0006800F0010005904FF4C0602F
:1048C0008DE80F4069465B48FEF7C2FCDFF85C816B
:1048D000594908F160084046C8F80010C0E9017560
:1048E000C0E90356C8F81450C8F81850C8F81C504E
:1048F000C8F82050C8F82450FEF708FC08B1FCF7AF
:1049000087FD4A4D4C48C4F83C80C0357830C8F823
:10491000384085E88102C5E903A6C5F814A0C5F8AA
:1049200018A0C5F81CA0C5F820A02846C5F824A0EA
:10493000FEF7ECFB08B1FCF76BFDA5630022052137
:104940002520AC63FEF710FE252090E7DFF8EC8011
:10495000C4458ED1DAF80080AB4648F40038CAF876
:104960000080DAF800C00CF4003CCDF814C0D0F898
:1049700000C04CF0080CC0F800C0006800F008004F
:10498000059060208DE80F4069462748FEF760FCDF
:104990002249DFF8AC8048314046C8F80010C0E931
:1049A0000175C0E90356C8F81450C8F81850C8F883
:1049B0001C50C8F82050C8F82450FEF7A7FB08B1D7
:1049C000FCF726FD1E4D1548C4F83C80603560306C
:1049D000C8F8384085E88102C5E903B6C5F814B0C7
:1049E000C5F818B0C5F81CB0C5F820B02846C5F801
:1049F00024B0FEF78BFB08B1FCF70AFDA56300228B
:104A000005212620AC63FEF7AFFD26202FE700002E
:104A1000004C004040380240000802404060024024
:104A2000DC11002000500040000C0240FC1200206D
:104A30000010014000000240406402400044004079
:104A40001C14002090F84230202B01D00220704727
:104A500021B11AB10023036303F0D2BD01207047D6
:104A60007047704737B5044690F84100202801D0C0
:104A700002203EBD019901B3FAB12162A284E28411
:104A800000206064212384F84130A56B144BEB6354
:104A9000A56B144B2B64A56B134BEB64A36B1865D0
:104AA00020681346A56B021D2846FEF799FB30B11E
:104AB00010206064202084F8410001203EBD216860
:104AC0006FF0400008602068143050E8001F41F08B
:104AD000800140E80012002AF5D100203EBD000010
:104AE0007D830008BF8300088F82000870B50446EC
:104AF00000680C490C4D884202D1688F401C6887C1
:104B00000A492068884204D1002240210848FEF763
:104B100087FC08492068884202D1A88E401CA886DC
:104B200070BD000000100140B05F0020004C00404C
:104B300000080240005000407047FEE741EA401084
:104B40007047000070B50C462DED048B054604211E
:104B50001378DFED222A2248F0EE429AB0EE619AF5
:104B6000F0EE418AB0EE608A022B02D0037883B166
:104B70001DE06170C4ED0B2AC4ED0C2AC4ED0D2AB2
:104B8000C4ED0E2AB0EE000A84ED0F0A0021017078
:104B90001BE092ED030A84ED0B0A92ED030A84ED0B
:104BA000010AC4ED022A92ED030A0122027061702B
:104BB00084ED080A201DFBF7B9FE94ED010A04F10B
:104BC000300084ED0B0A80EC048A21462846BDECB7
:104BD000048BBDE87040FBF7E3BD0000000000005F
:104BE000620F002002224A70FBF7DABD70B505465D
:104BF0002DED028B02F00F000872C2F345104872CF
:104C00009FED2B8ADFED2B8A28680C46C0F313003A
:104C10001421F0EE480AB0EE680A07F0E3FB84EDD9
:104C2000030AD5F801001421000BF0EE480AB0EE9B
:104C3000680A07F0D7FB84ED040AB5F805001021D7
:104C4000F0EE480AB0EE680A07F0CCFB84ED050AE6
:104C5000E879DFED190AC0F300002076E879072132
:104C60004008BBEE040A07F0BDFB84ED070A94ED93
:104C7000050A1248124AB0EEC00A10EE101A81421C
:104C800002DCE169914207DD2178022904D001208C
:104C90002070BDEC028B70BD10EE101A8142F8DC62
:104CA000E0699042F5DC002020706060F1E70000D0
:104CB00000002042000020C200004843000048429B
:104CC00000001643F7EE000A90ED030AD0ED041A37
:104CD000B0EE601A00EE211A80EE810A90ED021A01
:104CE00070EEC00A60EE810A90ED001A40EE010AF3
:104CF000C0ED010AC0ED000A70470000104810B571
:104D00000E4901600421416000214FF4A02281601E
:104D1000C0E903124FF4001242610176012242768B
:104D20008276C27601774277FDF7B9FD002803D07D
:104D3000BDE81040FCF76CBB10BD000000640040F3
:104D4000CC0F0020104810B50E49016004214160CD
:104D500000214FF4A0228160C0E903124FF4001239
:104D600042610176012242768276C27601774277ED
:104D7000FDF795FD002803D0BDE81040FCF748BBC7
:104D800010BD000000680040F40F0020294808B55D
:104D9000016841F480010160016801F48001009123
:104DA000016841F4001101600068002200F4001065
:104DB000009005210B20FEF7D7FB0B20FEF7C6FB6A
:104DC000002205210D20FEF7CFFB0D20FEF7BEFBD4
:104DD000002205210F20FEF7C7FB0F20FEF7B6FBD0
:104DE000002205211020FEF7BFFB1020FEF7AEFBCE
:104DF000002205211120FEF7B7FB1120FEF7A6FBCC
:104E0000002205212F20FEF7AFFB2F20FEF79EFB8F
:104E1000002205213A20FEF7A7FB3A20FEF796FB79
:104E2000002205214620FEF79FFBBDE808404620F2
:104E3000FEF78CBB3038024010B5154A00211548EA
:104E400006F052FA144C124A002120602432134812
:104E500006F04AFA0E4A606048320021104806F017
:104E600043FA0B4AA0606C3200210E4806F03CFA6F
:104E7000074AE060903200210B4806F035FA044AF8
:104E80002061B4320021094806F02EFA606110BD9D
:104E900090E10008457C000800000020057D000826
:104EA0001D7D0008357D0008517D0008197E000831
:104EB0002DE9F04786B014216846FBF74BFB3348D9
:104EC0000024016841F004010160016801F004015F
:104ED0000591016841F080010160016801F08001E5
:104EE0000591016841F002010160016801F00201D1
:104EF0000591016841F008010160016801F00801B5
:104F00000591016841F0010101600068012200F093
:104F10000100DFF87C801503059029464046FEF726
:104F20007FFADFF870902F11002239464846FEF7CD
:104F300077FADFF864A0002240215046FEF770FAAD
:104F40000095032601250396CDE9015469464046A4
:104F5000FEF77EF900970396CDE90154694648466D
:104F6000FEF776F968028DE8310069464846FEF79B
:104F70006FF94020CDE90005CDE90246694650466B
:104F8000FEF766F906B0BDE8F08700003038024051
:104F900000040240000C024000080240104810B516
:104FA0000E4901604FF48271416000218160C1604F
:104FB0004FF400720161C0E905120822C0E907211F
:104FC000416281620A21C162FEF736FE002803D0E9
:104FD000BDE81040FCF71CBA10BD000000380040CE
:104FE0001C10002010B586B00024174800940194CE
:104FF0000294039404944FF08041059401604F2182
:10500000C0E9011440F2E731C0E903148021816155
:10501000FEF7ECFF08B1FCF7FBF94FF4805000906D
:1050200069460948FFF76CF808B1FCF7F1F90494F8
:1050300004A905480594FEF791FF002801D0FCF76C
:10504000E7F906B010BD0000741000200D4810B53F
:105050000B4901600C494160002181600C22C16054
:10506000C0E9041281614FF40041C161FFF7D8FA31
:10507000002803D0BDE81040FCF7CAB910BD0000FD
:10508000004C0040BC10002000093D000C4810B549
:105090000A4901604FF461214160002181600C22C6
:1050A000C160C0E904128161C161FFF7B9FA00284B
:1050B00003D0BDE81040FCF7ABB910BD0050004074
:1050C000041100200C4810B50A4901604FF4612119
:1050D0004160002181600C22C160C0E9041281613D
:1050E000C161FFF79DFA002803D0BDE81040FCF72E
:1050F0008FB910BD001001404C1100200D4810B5B3
:105100000B4901600C494160002181600C22C160A3
:10511000C0E9041281614FF40041C161FFF780FAD8
:10512000002803D0BDE81040FCF772B910BD0000A4
:10513000004400409411002000093D00FEE7FEE716
:105140001CB50FA00522D0E90010CDE9001069467A
:10515000302000F0EBF805226946102000F04EF8F0
:10516000002069460A5CA52A03D1401CC0B205286C
:10517000F8D3052801D001201CBD00201CBD000073
:10518000A5A5A5A5A500000070B51A4D4FF4807423
:10519000002221462846FEF743F90F21202000F087
:1051A000EFF80121212000F0EBF80121222000F08E
:1051B000E7F85F21252000F0E3F80F21262000F01A
:1051C000DFF801213C2000F0DBF806213D2000F053
:1051D000D7F82021312000F0D3F8052206492A20F3
:1051E00000F0A4F821462846BDE870400122FEF7F1
:1051F00017B90000000C02408DE200082DE9F047CD
:10520000DFF8449015460E4604464FF480580022BD
:1052100041464846FEF704F921460C4802F028FAB8
:105220000746002406E0FF21084802F021FA305525
:10523000641CE4B2AC42F6D3012241464846FEF774
:10524000EFF83846BDE8F087000402401C1000204B
:1052500070B50C4D06464FF4805400222146284676
:10526000FEF7DEF83146084802F002FAFF21064850
:1052700002F0FEF90646012221462846FEF7D0F844
:10528000304670BD000402401C10002070B5064678
:10529000002422464FF480711448FEF7C1F807201D
:1052A000FFF7D6FF05460146272000F069F868069B
:1052B00015D50F48018C491C01846020FFF7C8FFF9
:1052C0000446212805D2024631466120FFF796FFA9
:1052D00000E00024FF21E22000F052F803E005493D
:1052E0000878401C0870204670BD0000000C024089
:1052F000B05F0020610F00200FB4FF2110B5E12046
:1053000000F03EF89DF829009DF8282040F0A80004
:1053100002A900F00BF8012211020348FEF780F801
:1053200010BC5DF814FB0000000C02402DE9F047B2
:10533000DFF8449016460D4604464FF4805800228C
:1053400041464846FEF76CF821460C4802F090F9B9
:105350000746002406E015F8011B084802F088F90A
:10536000641CE4B2B442F6D3012241464846FEF73B
:1053700057F83846BDE8F087000402401C100020B2
:105380002DE9F0410D4D0E4607464FF480540022A2
:1053900021462846FEF744F83946094802F068F9E4
:1053A00007463146064802F063F9012221462846A5
:1053B000FEF736F83846BDE8F081000000040240F0
:1053C0001C1000202DE9F041EE4E05462DED088B16
:1053D0000C4690ED7F0AD6ED010AB8EE400A20EEA9
:1053E000200A86ED020A7078014491F8C0189FEDFA
:1053F000E69A002928D104EB800101F50061E34A17
:10540000D1ED350AF0EEE00A10EE901A91421CDC64
:1054100000EB400004EBC000D0ED000A90EDF01A64
:1054200041EE000AC5ED070AD0ED010A90EDF11A30
:1054300041EE000AC5ED1C0A90EDF00A85ED790AEF
:1054400090EDF10A85ED7A0AD3E010EE100A08F02B
:1054500031FD41EC100B9FEDCEBBB0EE4B1AF0EEE0
:105460006B1A04F055F87078B0EE408A00EB4000FB
:1054700004EBC00000F58060F0EE608A90ED6C0AED
:1054800020EE090A03F042FF777804EB870000F56D
:105490000060D0ED350A20EE200A10EE100A08F068
:1054A00009FD53EC182B08F00FFA9FEDBBAB53EC42
:1054B0001A2B08F009FA41EC180B07EB470004EB34
:1054C000C000D6ED029A90ED000AD0EDF00A00EE91
:1054D000A90A10EE100A08F0EDFC53EC182B07F0A7
:1054E0003DFF07F009FFE86119EE900A08F0E2FCC1
:1054F00041EC100BB0EE4B1AF0EE6B1A04F008F80A
:105500007078B0EE408A00EB400004EBC00000F57C
:105510008060F0EE608A90ED6C0A20EE090A05F0DA
:1055200051F9777804EB870000F50060D0ED350A7B
:1055300020EE200A10EE100A08F0BCFC53EC182BE9
:1055400008F0C2F953EC1A2B08F0BEF941EC180B25
:1055500007EB470004EBC00796ED021A97ED010A2E
:10556000D7EDF10A00EE810A10EE100A08F0A2FC55
:1055700053EC182B07F0F2FE07F0BEFE07F580672C
:10558000286797ED6C0A20EE090A03F0BFFE7078D9
:10559000D6ED021A00EB400104EB800000F500603C
:1055A00004EBC10190ED351AD1EDF00A01F58061EF
:1055B00021EE211A41EE000AC5ED790A91ED6C0A3F
:1055C00020EE090A05F0FEF87078D6ED021A00EB1D
:1055D000400104EB800000F5006004EBC10190ED98
:1055E000351AD1EDF10A21EE211A41EE000AC5ED7E
:1055F0007A0A7078211891F8C01801297ED100EB41
:10560000400104EBC10101F5806291EDF40AD2ED95
:105610006C0A634A30EEC08A18EE101ADFED610A98
:10562000914201DD38EE608A5F4A18EE101A91420D
:1056300001D938EE208AD6ED020A04EB800000F58D
:10564000006028EE201AD0ED711AC1EE210A30EE6A
:10565000800A20EE090A05F0B5F87078F0EE408A6D
:1056600000EB400004EBC00090EDF40A20EE090AC4
:1056700005F0A8F8707878EEC00A00EB400104EB62
:10568000800004EBC10100F5006091ED000A90ED8F
:105690005D1A01EE200A85ED070A91EDF40A20EE6D
:1056A000090A03F033FEF0EE408A707896ED020AA4
:1056B00004EB800101F5006168EE000A91ED711ABA
:1056C00000EB400004EBC00080EE810AD0EDF40A4C
:1056D00030EE200A20EE090A03F018FE707878EE0A
:1056E000C00A00EB400104EB800004EBC10100F5AF
:1056F000006091ED010A90ED5D1A00E03DE001EEE1
:10570000200A85ED1C0A96ED020A90ED711A68EEEA
:10571000000A80EE810AD1EDF40A30EE200A20EE74
:10572000090A03F0F3FD707800EB400104EBC101BE
:1057300004EB8000D1EDF30A00F5006020EE200AB2
:1057400085ED790A96ED020A90ED711A28EE000AAD
:10575000C0EE010A91EDF40A30EE800A20EE090A4B
:1057600005F030F8707800EB400004EBC000D0ED9D
:10577000F30A20EE200A85ED7A0ABDEC088BBDE81D
:10578000F0810000640F002035FA8E3CACC527374D
:105790000000000000000040000000000000E03FAA
:1057A000000034430000B443000034C32DE9F0414D
:1057B0004A4F04462DED048B0E4690ED820AD7ED3C
:1057C000010AB8EE400A20EE200A87ED030AB878F5
:1057D00001EB800101F50060D0ED850AF4EEC00A0E
:1057E000F1EE10FA60DD3A783AB9D4ED080AC4ED6A
:1057F000070AD4ED1D0AC4ED1C0AD0ED490A384B46
:10580000F0EEE00A10EE902A9A423FDD10EE100A08
:1058100008F050FB41EC100B9FED321B03F078FEBB
:10582000B878B0EE408A06EB8008F0EE608A08F5A2
:105830000065D8F8240908F03DFB53EC182B08F05C
:1058400043F89FED2A1B53EC112B08F03DF841EC77
:10585000180B08F58060D5ED080A90EDE00A97ED89
:10586000039A00EE890A10EE100A08F023FB53ECAD
:10587000182B07F073FD07F03FFDC4F8180195EDF4
:10588000080AD5ED490A00EE890A0BE001F58061AE
:1058900090ED081AD1EDE00A41EE000AC4ED460A87
:1058A00090ED080A84ED7B0A96F8651AB878814273
:1058B0000FD106EB800000F5806090EDDF0AD0ED9F
:1058C000F30A30EE200A84ED460A9FED0A0A84EDC1
:1058D0007B0ABDEC048BBDE8F0810000640F002062
:1058E000ACC52737000000000000004000000000A9
:1058F0000000E03F000000002DE9F04FE64DE74AD0
:10590000DFF89CE3DFF89CA305F108092DED048B7B
:1059100085B095F800C0DFEDE48A9FEDE49AE44895
:10592000E44B0121E44EE54F00249FEDE58ABCF1F4
:105930000A0F7CD2DFE80CF098059DC3F4F2F1F079
:10594000EFEE82F8504182ED158A82ED008A82EDF9
:105950002A8A82ED3F8A80F8204183F82041D94A83
:1059600087F82041A34686F820411478B3EE0E0A4A
:105970000CB980ED470AD44C94F800C0BCF1000F7C
:1059800001D183ED470ADFF844C39CF80080B8F1E9
:10599000000F01D187ED470ADFF8349399F80080B2
:1059A000B8F1000F01D186ED470ADFF828A39AF875
:1059B0000080B8F1000F02D1117080ED478A9AF88B
:1059C0000280B8F1000F02D1217083ED478A9AF866
:1059D0000380B8F1000F03D089F8001086ED478AE4
:1059E0009AF80480B8F1000F03D08CF8001087ED0E
:1059F000478A1178002937D02178002934D09CF8C3
:105A00000010002930D099F80080B8F1000F2BD099
:105A100090ED0A0ADFF8C0828EED000A93ED0A0AC3
:105A200088ED000A97ED0A0ADFF8B08200E01BE07B
:105A300088ED000ADFF8A88296ED0A0A88ED000AD0
:105A40004FF0020885F8008087ED168A83ED168AEC
:105A500080ED168A86ED168A82F800B084F800B0D0
:105A60008CF800B089F800B005B0BDEC048BBDE83F
:105A7000F08F82F8504180F8201183F8201187F8C8
:105A8000201186F820119EED000A80ED460A92480A
:105A900090ED000A914883ED460A90ED000A904887
:105AA00087ED460A90ED000A86ED460A82ED158ADA
:105AB00082ED008A82ED2A8A82ED3F8AD4E782F85D
:105AC000504182ED208A82ED0B8A82ED358A82ED8B
:105AD0004A8A80ED0C8A83ED0C8A87ED0C8A86ED6C
